{
  "contractName": "SpaceShipEventContract",
  "abi": [
    {
      "inputs": [],
      "stateMutability": "nonpayable",
      "type": "constructor"
    },
    {
      "anonymous": false,
      "inputs": [
        {
          "indexed": true,
          "internalType": "address",
          "name": "owner",
          "type": "address"
        },
        {
          "indexed": true,
          "internalType": "address",
          "name": "approved",
          "type": "address"
        },
        {
          "indexed": true,
          "internalType": "uint256",
          "name": "tokenId",
          "type": "uint256"
        }
      ],
      "name": "Approval",
      "type": "event"
    },
    {
      "anonymous": false,
      "inputs": [
        {
          "indexed": true,
          "internalType": "address",
          "name": "owner",
          "type": "address"
        },
        {
          "indexed": true,
          "internalType": "address",
          "name": "operator",
          "type": "address"
        },
        {
          "indexed": false,
          "internalType": "bool",
          "name": "approved",
          "type": "bool"
        }
      ],
      "name": "ApprovalForAll",
      "type": "event"
    },
    {
      "anonymous": false,
      "inputs": [
        {
          "indexed": true,
          "internalType": "address",
          "name": "previousOwner",
          "type": "address"
        },
        {
          "indexed": true,
          "internalType": "address",
          "name": "newOwner",
          "type": "address"
        }
      ],
      "name": "OwnershipTransferred",
      "type": "event"
    },
    {
      "anonymous": false,
      "inputs": [
        {
          "indexed": true,
          "internalType": "address",
          "name": "from",
          "type": "address"
        },
        {
          "indexed": true,
          "internalType": "address",
          "name": "to",
          "type": "address"
        },
        {
          "indexed": true,
          "internalType": "uint256",
          "name": "tokenId",
          "type": "uint256"
        }
      ],
      "name": "Transfer",
      "type": "event"
    },
    {
      "inputs": [
        {
          "internalType": "address",
          "name": "to",
          "type": "address"
        },
        {
          "internalType": "uint256",
          "name": "tokenId",
          "type": "uint256"
        }
      ],
      "name": "approve",
      "outputs": [],
      "stateMutability": "nonpayable",
      "type": "function"
    },
    {
      "inputs": [
        {
          "internalType": "address",
          "name": "owner",
          "type": "address"
        }
      ],
      "name": "balanceOf",
      "outputs": [
        {
          "internalType": "uint256",
          "name": "",
          "type": "uint256"
        }
      ],
      "stateMutability": "view",
      "type": "function",
      "constant": true
    },
    {
      "inputs": [
        {
          "internalType": "uint256",
          "name": "tokenId",
          "type": "uint256"
        }
      ],
      "name": "getApproved",
      "outputs": [
        {
          "internalType": "address",
          "name": "",
          "type": "address"
        }
      ],
      "stateMutability": "view",
      "type": "function",
      "constant": true
    },
    {
      "inputs": [
        {
          "internalType": "address",
          "name": "owner",
          "type": "address"
        },
        {
          "internalType": "address",
          "name": "operator",
          "type": "address"
        }
      ],
      "name": "isApprovedForAll",
      "outputs": [
        {
          "internalType": "bool",
          "name": "",
          "type": "bool"
        }
      ],
      "stateMutability": "view",
      "type": "function",
      "constant": true
    },
    {
      "inputs": [],
      "name": "name",
      "outputs": [
        {
          "internalType": "string",
          "name": "",
          "type": "string"
        }
      ],
      "stateMutability": "view",
      "type": "function",
      "constant": true
    },
    {
      "inputs": [],
      "name": "owner",
      "outputs": [
        {
          "internalType": "address",
          "name": "",
          "type": "address"
        }
      ],
      "stateMutability": "view",
      "type": "function",
      "constant": true
    },
    {
      "inputs": [
        {
          "internalType": "uint256",
          "name": "tokenId",
          "type": "uint256"
        }
      ],
      "name": "ownerOf",
      "outputs": [
        {
          "internalType": "address",
          "name": "",
          "type": "address"
        }
      ],
      "stateMutability": "view",
      "type": "function",
      "constant": true
    },
    {
      "inputs": [],
      "name": "renounceOwnership",
      "outputs": [],
      "stateMutability": "nonpayable",
      "type": "function"
    },
    {
      "inputs": [
        {
          "internalType": "address",
          "name": "from",
          "type": "address"
        },
        {
          "internalType": "address",
          "name": "to",
          "type": "address"
        },
        {
          "internalType": "uint256",
          "name": "tokenId",
          "type": "uint256"
        }
      ],
      "name": "safeTransferFrom",
      "outputs": [],
      "stateMutability": "nonpayable",
      "type": "function"
    },
    {
      "inputs": [
        {
          "internalType": "address",
          "name": "from",
          "type": "address"
        },
        {
          "internalType": "address",
          "name": "to",
          "type": "address"
        },
        {
          "internalType": "uint256",
          "name": "tokenId",
          "type": "uint256"
        },
        {
          "internalType": "bytes",
          "name": "_data",
          "type": "bytes"
        }
      ],
      "name": "safeTransferFrom",
      "outputs": [],
      "stateMutability": "nonpayable",
      "type": "function"
    },
    {
      "inputs": [
        {
          "internalType": "address",
          "name": "operator",
          "type": "address"
        },
        {
          "internalType": "bool",
          "name": "approved",
          "type": "bool"
        }
      ],
      "name": "setApprovalForAll",
      "outputs": [],
      "stateMutability": "nonpayable",
      "type": "function"
    },
    {
      "inputs": [
        {
          "internalType": "bytes4",
          "name": "interfaceId",
          "type": "bytes4"
        }
      ],
      "name": "supportsInterface",
      "outputs": [
        {
          "internalType": "bool",
          "name": "",
          "type": "bool"
        }
      ],
      "stateMutability": "view",
      "type": "function",
      "constant": true
    },
    {
      "inputs": [],
      "name": "symbol",
      "outputs": [
        {
          "internalType": "string",
          "name": "",
          "type": "string"
        }
      ],
      "stateMutability": "view",
      "type": "function",
      "constant": true
    },
    {
      "inputs": [
        {
          "internalType": "address",
          "name": "from",
          "type": "address"
        },
        {
          "internalType": "address",
          "name": "to",
          "type": "address"
        },
        {
          "internalType": "uint256",
          "name": "tokenId",
          "type": "uint256"
        }
      ],
      "name": "transferFrom",
      "outputs": [],
      "stateMutability": "nonpayable",
      "type": "function"
    },
    {
      "inputs": [
        {
          "internalType": "address",
          "name": "newOwner",
          "type": "address"
        }
      ],
      "name": "transferOwnership",
      "outputs": [],
      "stateMutability": "nonpayable",
      "type": "function"
    },
    {
      "inputs": [
        {
          "internalType": "uint256",
          "name": "tokenId",
          "type": "uint256"
        }
      ],
      "name": "tokenURI",
      "outputs": [
        {
          "internalType": "string",
          "name": "",
          "type": "string"
        }
      ],
      "stateMutability": "view",
      "type": "function",
      "constant": true
    },
    {
      "inputs": [],
      "name": "getAllSpaceShips",
      "outputs": [
        {
          "components": [
            {
              "internalType": "uint256",
              "name": "id",
              "type": "uint256"
            },
            {
              "internalType": "string",
              "name": "uri",
              "type": "string"
            }
          ],
          "internalType": "struct SpaceShipEventContract.RenderSpaceShip[]",
          "name": "",
          "type": "tuple[]"
        }
      ],
      "stateMutability": "view",
      "type": "function",
      "constant": true
    },
    {
      "inputs": [
        {
          "internalType": "address",
          "name": "recipient",
          "type": "address"
        },
        {
          "internalType": "string",
          "name": "uri",
          "type": "string"
        }
      ],
      "name": "mint",
      "outputs": [
        {
          "internalType": "uint256",
          "name": "",
          "type": "uint256"
        }
      ],
      "stateMutability": "nonpayable",
      "type": "function"
    }
  ],
  "bytecode": "0x60806040523480156200001157600080fd5b50604080518082018252601981527f53706163652053686970204576656e7420436f6e74726163740000000000000060208083019182528351808501909452600384526253504560e81b908401528151919291620000729160009162000101565b5080516200008890600190602084019062000101565b505050620000a56200009f620000ab60201b60201c565b620000af565b620001e4565b3390565b600680546001600160a01b038381166001600160a01b0319831681179093556040519116919082907f8be0079c531659141344cd1fd0a4f28419497f9722a3daafe3b4186f6b6457e090600090a35050565b8280546200010f90620001a7565b90600052602060002090601f0160209004810192826200013357600085556200017e565b82601f106200014e57805160ff19168380011785556200017e565b828001600101855582156200017e579182015b828111156200017e57825182559160200191906001019062000161565b506200018c92915062000190565b5090565b5b808211156200018c576000815560010162000191565b600281046001821680620001bc57607f821691505b60208210811415620001de57634e487b7160e01b600052602260045260246000fd5b50919050565b6117f180620001f46000396000f3fe608060405234801561001057600080fd5b50600436106101165760003560e01c80638da5cb5b116100a2578063c87b56dd11610071578063c87b56dd14610225578063d0def52114610238578063e985e9c51461024b578063f2fde38b1461025e578063fca147291461027157610116565b80638da5cb5b146101ef57806395d89b41146101f7578063a22cb465146101ff578063b88d4fde1461021257610116565b806323b872dd116100e957806323b872dd1461018e57806342842e0e146101a15780636352211e146101b457806370a08231146101c7578063715018a6146101e757610116565b806301ffc9a71461011b57806306fdde0314610144578063081812fc14610159578063095ea7b314610179575b600080fd5b61012e610129366004611159565b610286565b60405161013b91906112b6565b60405180910390f35b61014c6102ce565b60405161013b91906112c1565b61016c610167366004611191565b610360565b60405161013b91906111f4565b61018c610187366004611130565b6103ac565b005b61018c61019c366004610fe3565b610444565b61018c6101af366004610fe3565b61047c565b61016c6101c2366004611191565b610497565b6101da6101d5366004610f97565b6104cc565b60405161013b91906116eb565b61018c610510565b61016c61055b565b61014c61056a565b61018c61020d366004611097565b610579565b61018c61022036600461101e565b610647565b61014c610233366004611191565b610686565b6101da6102463660046110d1565b610739565b61012e610259366004610fb1565b6107ad565b61018c61026c366004610f97565b6107db565b61027961084c565b60405161013b9190611245565b60006001600160e01b031982166380ac58cd60e01b14806102b757506001600160e01b03198216635b5e139f60e01b145b806102c657506102c682610952565b90505b919050565b6060600080546102dd90611723565b80601f016020809104026020016040519081016040528092919081815260200182805461030990611723565b80156103565780601f1061032b57610100808354040283529160200191610356565b820191906000526020600020905b81548152906001019060200180831161033957829003601f168201915b5050505050905090565b600061036b8261096b565b6103905760405162461bcd60e51b81526004016103879061158f565b60405180910390fd5b506000908152600460205260409020546001600160a01b031690565b60006103b782610497565b9050806001600160a01b0316836001600160a01b031614156103eb5760405162461bcd60e51b815260040161038790611659565b806001600160a01b03166103fd610988565b6001600160a01b03161480610419575061041981610259610988565b6104355760405162461bcd60e51b81526004016103879061146a565b61043f838361098c565b505050565b61045561044f610988565b826109fa565b6104715760405162461bcd60e51b81526004016103879061169a565b61043f838383610a7f565b61043f83838360405180602001604052806000815250610647565b6000818152600260205260408120546001600160a01b0316806102c65760405162461bcd60e51b815260040161038790611511565b60006001600160a01b0382166104f45760405162461bcd60e51b8152600401610387906114c7565b506001600160a01b031660009081526003602052604090205490565b610518610988565b6001600160a01b031661052961055b565b6001600160a01b03161461054f5760405162461bcd60e51b8152600401610387906115db565b6105596000610bac565b565b6006546001600160a01b031690565b6060600180546102dd90611723565b610581610988565b6001600160a01b0316826001600160a01b031614156105b25760405162461bcd60e51b8152600401610387906113e7565b80600560006105bf610988565b6001600160a01b03908116825260208083019390935260409182016000908120918716808252919093529120805460ff191692151592909217909155610603610988565b6001600160a01b03167f17307eab39ab6107e8899845ad3d59bd9653f200f220920489ca2b5937696c318360405161063b91906112b6565b60405180910390a35050565b610658610652610988565b836109fa565b6106745760405162461bcd60e51b81526004016103879061169a565b61068084848484610bfe565b50505050565b60606106918261096b565b61069a57600080fd5b600082815260086020526040812080546106b390611723565b80601f01602080910402602001604051908101604052809291908181526020018280546106df90611723565b801561072c5780601f106107015761010080835404028352916020019161072c565b820191906000526020600020905b81548152906001019060200180831161070f57829003601f168201915b5093979650505050505050565b6000610743610988565b6001600160a01b031661075461055b565b6001600160a01b03161461077a5760405162461bcd60e51b8152600401610387906115db565b60006107866007610c31565b90506107928482610c35565b61079c8184610d14565b6107a66007610d33565b9392505050565b6001600160a01b03918216600090815260056020908152604080832093909416825291909152205460ff1690565b6107e3610988565b6001600160a01b03166107f461055b565b6001600160a01b03161461081a5760405162461bcd60e51b8152600401610387906115db565b6001600160a01b0381166108405760405162461bcd60e51b815260040161038790611326565b61084981610bac565b50565b6060600061085a6007610c31565b90506000808267ffffffffffffffff81111561088657634e487b7160e01b600052604160045260246000fd5b6040519080825280602002602001820160405280156108bf57816020015b6108ac610e5d565b8152602001906001900390816108a45790505b50905060005b8381101561094a576108d68361096b565b1561092a5760006108e684610686565b905060405180604001604052808581526020018281525083858151811061091d57634e487b7160e01b600052603260045260246000fd5b6020026020010181905250505b826109348161175e565b93505080806109429061175e565b9150506108c5565b509250505090565b6001600160e01b031981166301ffc9a760e01b14919050565b6000908152600260205260409020546001600160a01b0316151590565b3390565b600081815260046020526040902080546001600160a01b0319166001600160a01b03841690811790915581906109c182610497565b6001600160a01b03167f8c5be1e5ebec7d5bd14f71427d1e84f3dd0314c0f7b2291e5b200ac8c7c3b92560405160405180910390a45050565b6000610a058261096b565b610a215760405162461bcd60e51b81526004016103879061141e565b6000610a2c83610497565b9050806001600160a01b0316846001600160a01b03161480610a675750836001600160a01b0316610a5c84610360565b6001600160a01b0316145b80610a775750610a7781856107ad565b949350505050565b826001600160a01b0316610a9282610497565b6001600160a01b031614610ab85760405162461bcd60e51b815260040161038790611610565b6001600160a01b038216610ade5760405162461bcd60e51b8152600401610387906113a3565b610ae983838361043f565b610af460008261098c565b6001600160a01b0383166000908152600360205260408120805460019290610b1d90849061170c565b90915550506001600160a01b0382166000908152600360205260408120805460019290610b4b9084906116f4565b909155505060008181526002602052604080822080546001600160a01b0319166001600160a01b0386811691821790925591518493918716917fddf252ad1be2c89b69c2b068fc378daa952ba7f163c4a11628f55a4df523b3ef91a4505050565b600680546001600160a01b038381166001600160a01b0319831681179093556040519116919082907f8be0079c531659141344cd1fd0a4f28419497f9722a3daafe3b4186f6b6457e090600090a35050565b610c09848484610a7f565b610c1584848484610d3c565b6106805760405162461bcd60e51b8152600401610387906112d4565b5490565b6001600160a01b038216610c5b5760405162461bcd60e51b81526004016103879061155a565b610c648161096b565b15610c815760405162461bcd60e51b81526004016103879061136c565b610c8d6000838361043f565b6001600160a01b0382166000908152600360205260408120805460019290610cb69084906116f4565b909155505060008181526002602052604080822080546001600160a01b0319166001600160a01b03861690811790915590518392907fddf252ad1be2c89b69c2b068fc378daa952ba7f163c4a11628f55a4df523b3ef908290a45050565b6000828152600860209081526040909120825161043f92840190610e77565b80546001019055565b6000610d50846001600160a01b0316610e57565b15610e4c57836001600160a01b031663150b7a02610d6c610988565b8786866040518563ffffffff1660e01b8152600401610d8e9493929190611208565b602060405180830381600087803b158015610da857600080fd5b505af1925050508015610dd8575060408051601f3d908101601f19168201909252610dd591810190611175565b60015b610e32573d808015610e06576040519150601f19603f3d011682016040523d82523d6000602084013e610e0b565b606091505b508051610e2a5760405162461bcd60e51b8152600401610387906112d4565b805181602001fd5b6001600160e01b031916630a85bd0160e11b149050610a77565b506001949350505050565b3b151590565b604051806040016040528060008152602001606081525090565b828054610e8390611723565b90600052602060002090601f016020900481019282610ea55760008555610eeb565b82601f10610ebe57805160ff1916838001178555610eeb565b82800160010185558215610eeb579182015b82811115610eeb578251825591602001919060010190610ed0565b50610ef7929150610efb565b5090565b5b80821115610ef75760008155600101610efc565b600067ffffffffffffffff80841115610f2b57610f2b61178f565b604051601f8501601f191681016020018281118282101715610f4f57610f4f61178f565b604052848152915081838501861015610f6757600080fd5b8484602083013760006020868301015250509392505050565b80356001600160a01b03811681146102c957600080fd5b600060208284031215610fa8578081fd5b6107a682610f80565b60008060408385031215610fc3578081fd5b610fcc83610f80565b9150610fda60208401610f80565b90509250929050565b600080600060608486031215610ff7578081fd5b61100084610f80565b925061100e60208501610f80565b9150604084013590509250925092565b60008060008060808587031215611033578081fd5b61103c85610f80565b935061104a60208601610f80565b925060408501359150606085013567ffffffffffffffff81111561106c578182fd5b8501601f8101871361107c578182fd5b61108b87823560208401610f10565b91505092959194509250565b600080604083850312156110a9578182fd5b6110b283610f80565b9150602083013580151581146110c6578182fd5b809150509250929050565b600080604083850312156110e3578182fd5b6110ec83610f80565b9150602083013567ffffffffffffffff811115611107578182fd5b8301601f81018513611117578182fd5b61112685823560208401610f10565b9150509250929050565b60008060408385031215611142578182fd5b61114b83610f80565b946020939093013593505050565b60006020828403121561116a578081fd5b81356107a6816117a5565b600060208284031215611186578081fd5b81516107a6816117a5565b6000602082840312156111a2578081fd5b5035919050565b60008151808452815b818110156111ce576020818501810151868301820152016111b2565b818111156111df5782602083870101525b50601f01601f19169290920160200192915050565b6001600160a01b0391909116815260200190565b6001600160a01b038581168252841660208201526040810183905260806060820181905260009061123b908301846111a9565b9695505050505050565b60208082528251828201819052600091906040908185019080840286018301878501865b838110156112a857888303603f19018552815180518452870151878401879052611295878501826111a9565b9588019593505090860190600101611269565b509098975050505050505050565b901515815260200190565b6000602082526107a660208301846111a9565b60208082526032908201527f4552433732313a207472616e7366657220746f206e6f6e20455243373231526560408201527131b2b4bb32b91034b6b83632b6b2b73a32b960711b606082015260800190565b60208082526026908201527f4f776e61626c653a206e6577206f776e657220697320746865207a65726f206160408201526564647265737360d01b606082015260800190565b6020808252601c908201527f4552433732313a20746f6b656e20616c7265616479206d696e74656400000000604082015260600190565b60208082526024908201527f4552433732313a207472616e7366657220746f20746865207a65726f206164646040820152637265737360e01b606082015260800190565b60208082526019908201527f4552433732313a20617070726f766520746f2063616c6c657200000000000000604082015260600190565b6020808252602c908201527f4552433732313a206f70657261746f7220717565727920666f72206e6f6e657860408201526b34b9ba32b73a103a37b5b2b760a11b606082015260800190565b60208082526038908201527f4552433732313a20617070726f76652063616c6c6572206973206e6f74206f7760408201527f6e6572206e6f7220617070726f76656420666f7220616c6c0000000000000000606082015260800190565b6020808252602a908201527f4552433732313a2062616c616e636520717565727920666f7220746865207a65604082015269726f206164647265737360b01b606082015260800190565b60208082526029908201527f4552433732313a206f776e657220717565727920666f72206e6f6e657869737460408201526832b73a103a37b5b2b760b91b606082015260800190565b6020808252818101527f4552433732313a206d696e7420746f20746865207a65726f2061646472657373604082015260600190565b6020808252602c908201527f4552433732313a20617070726f76656420717565727920666f72206e6f6e657860408201526b34b9ba32b73a103a37b5b2b760a11b606082015260800190565b6020808252818101527f4f776e61626c653a2063616c6c6572206973206e6f7420746865206f776e6572604082015260600190565b60208082526029908201527f4552433732313a207472616e73666572206f6620746f6b656e2074686174206960408201526839903737ba1037bbb760b91b606082015260800190565b60208082526021908201527f4552433732313a20617070726f76616c20746f2063757272656e74206f776e656040820152603960f91b606082015260800190565b60208082526031908201527f4552433732313a207472616e736665722063616c6c6572206973206e6f74206f6040820152701ddb995c881b9bdc88185c1c1c9bdd9959607a1b606082015260800190565b90815260200190565b6000821982111561170757611707611779565b500190565b60008282101561171e5761171e611779565b500390565b60028104600182168061173757607f821691505b6020821081141561175857634e487b7160e01b600052602260045260246000fd5b50919050565b600060001982141561177257611772611779565b5060010190565b634e487b7160e01b600052601160045260246000fd5b634e487b7160e01b600052604160045260246000fd5b6001600160e01b03198116811461084957600080fdfea264697066735822122033e3dc29db0ac51cbf736f73cdee26ce14e8dd7fe81521096c8618d24bac59a664736f6c63430008000033",
  "immutableReferences": {},
  "source": "// SPDX-License-Identifier: MIT\n\npragma solidity ^0.8.0;\n\nimport \"@openzeppelin/contracts/token/ERC721/ERC721.sol\";\nimport \"@openzeppelin/contracts/access/Ownable.sol\";\nimport \"@openzeppelin/contracts/utils/Counters.sol\";\n\ncontract SpaceShipEventContract is ERC721, Ownable {\n    using Counters for Counters.Counter;\n    using Strings for uint256;\n    Counters.Counter _tokenIds;\n    mapping(uint256 => string) _tokenURIs;\n\n    struct RenderSpaceShip {\n        uint256 id;\n        string uri;\n    }\n\n    constructor() ERC721(\"Space Ship Event Contract\", \"SPE\") {}\n\n    function _setTokenURI(uint256 tokenId, string memory _tokenURI) internal {\n        _tokenURIs[tokenId] = _tokenURI;\n    }\n\n    function tokenURI(uint256 tokenId) public view virtual override returns(string memory) {\n        require(_exists(tokenId));\n        string memory _tokenURI = _tokenURIs[tokenId];\n        return _tokenURI;\n    }\n\n    function getAllSpaceShips() public view returns(RenderSpaceShip[] memory)  {\n        uint256 curId = _tokenIds.current();\n        uint256 counter = 0;\n        RenderSpaceShip[] memory res = new RenderSpaceShip[](curId);\n        for(uint256 i = 0; i < curId; i++) {\n            if(_exists(counter)) {\n                string memory uri = tokenURI(counter);\n                res[counter] = RenderSpaceShip(counter, uri);\n            }\n            counter++;\n        }\n        return res;\n    }\n\n    function mint(address recipient, string memory uri) public onlyOwner() returns(uint256) {\n        uint256 newId = _tokenIds.current();\n        _mint(recipient, newId);\n        _setTokenURI(newId, uri);\n        _tokenIds.increment();\n        return newId;\n    }\n}\n",
  "sourcePath": "G:\\NFT\\NFT-SpaceShip-Event\\contracts\\SpaceShipEventContract.sol",
  "compiler": {
    "name": "solc",
    "version": "0.8.0+commit.c7dfd78e.Emscripten.clang"
  },
  "schemaVersion": "3.4.3",
  "updatedAt": "2021-09-22T15:01:54.025Z",
  "networkType": "ethereum",
  "devdoc": {
    "kind": "dev",
    "methods": {
      "approve(address,uint256)": {
        "details": "See {IERC721-approve}."
      },
      "balanceOf(address)": {
        "details": "See {IERC721-balanceOf}."
      },
      "getApproved(uint256)": {
        "details": "See {IERC721-getApproved}."
      },
      "isApprovedForAll(address,address)": {
        "details": "See {IERC721-isApprovedForAll}."
      },
      "name()": {
        "details": "See {IERC721Metadata-name}."
      },
      "owner()": {
        "details": "Returns the address of the current owner."
      },
      "ownerOf(uint256)": {
        "details": "See {IERC721-ownerOf}."
      },
      "renounceOwnership()": {
        "details": "Leaves the contract without owner. It will not be possible to call `onlyOwner` functions anymore. Can only be called by the current owner. NOTE: Renouncing ownership will leave the contract without an owner, thereby removing any functionality that is only available to the owner."
      },
      "safeTransferFrom(address,address,uint256)": {
        "details": "See {IERC721-safeTransferFrom}."
      },
      "safeTransferFrom(address,address,uint256,bytes)": {
        "details": "See {IERC721-safeTransferFrom}."
      },
      "setApprovalForAll(address,bool)": {
        "details": "See {IERC721-setApprovalForAll}."
      },
      "supportsInterface(bytes4)": {
        "details": "See {IERC165-supportsInterface}."
      },
      "symbol()": {
        "details": "See {IERC721Metadata-symbol}."
      },
      "tokenURI(uint256)": {
        "details": "See {IERC721Metadata-tokenURI}."
      },
      "transferFrom(address,address,uint256)": {
        "details": "See {IERC721-transferFrom}."
      },
      "transferOwnership(address)": {
        "details": "Transfers ownership of the contract to a new account (`newOwner`). Can only be called by the current owner."
      }
    },
    "version": 1
  },
  "userdoc": {
    "kind": "user",
    "methods": {},
    "version": 1
  }
}