{
  "contractName": "SpaceShipEventContract",
  "abi": [
    {
      "inputs": [
        {
          "internalType": "uint256",
          "name": "tokenCap",
          "type": "uint256"
        },
        {
          "internalType": "string",
          "name": "CID",
          "type": "string"
        }
      ],
      "stateMutability": "nonpayable",
      "type": "constructor"
    },
    {
      "anonymous": false,
      "inputs": [
        {
          "indexed": true,
          "internalType": "address",
          "name": "owner",
          "type": "address"
        },
        {
          "indexed": true,
          "internalType": "address",
          "name": "approved",
          "type": "address"
        },
        {
          "indexed": true,
          "internalType": "uint256",
          "name": "tokenId",
          "type": "uint256"
        }
      ],
      "name": "Approval",
      "type": "event"
    },
    {
      "anonymous": false,
      "inputs": [
        {
          "indexed": true,
          "internalType": "address",
          "name": "owner",
          "type": "address"
        },
        {
          "indexed": true,
          "internalType": "address",
          "name": "operator",
          "type": "address"
        },
        {
          "indexed": false,
          "internalType": "bool",
          "name": "approved",
          "type": "bool"
        }
      ],
      "name": "ApprovalForAll",
      "type": "event"
    },
    {
      "anonymous": false,
      "inputs": [
        {
          "indexed": true,
          "internalType": "address",
          "name": "previousOwner",
          "type": "address"
        },
        {
          "indexed": true,
          "internalType": "address",
          "name": "newOwner",
          "type": "address"
        }
      ],
      "name": "OwnershipTransferred",
      "type": "event"
    },
    {
      "anonymous": false,
      "inputs": [
        {
          "indexed": true,
          "internalType": "address",
          "name": "from",
          "type": "address"
        },
        {
          "indexed": true,
          "internalType": "address",
          "name": "to",
          "type": "address"
        },
        {
          "indexed": true,
          "internalType": "uint256",
          "name": "tokenId",
          "type": "uint256"
        }
      ],
      "name": "Transfer",
      "type": "event"
    },
    {
      "inputs": [
        {
          "internalType": "address",
          "name": "to",
          "type": "address"
        },
        {
          "internalType": "uint256",
          "name": "tokenId",
          "type": "uint256"
        }
      ],
      "name": "approve",
      "outputs": [],
      "stateMutability": "nonpayable",
      "type": "function"
    },
    {
      "inputs": [
        {
          "internalType": "address",
          "name": "owner",
          "type": "address"
        }
      ],
      "name": "balanceOf",
      "outputs": [
        {
          "internalType": "uint256",
          "name": "",
          "type": "uint256"
        }
      ],
      "stateMutability": "view",
      "type": "function",
      "constant": true
    },
    {
      "inputs": [
        {
          "internalType": "uint256",
          "name": "tokenId",
          "type": "uint256"
        }
      ],
      "name": "getApproved",
      "outputs": [
        {
          "internalType": "address",
          "name": "",
          "type": "address"
        }
      ],
      "stateMutability": "view",
      "type": "function",
      "constant": true
    },
    {
      "inputs": [
        {
          "internalType": "address",
          "name": "owner",
          "type": "address"
        },
        {
          "internalType": "address",
          "name": "operator",
          "type": "address"
        }
      ],
      "name": "isApprovedForAll",
      "outputs": [
        {
          "internalType": "bool",
          "name": "",
          "type": "bool"
        }
      ],
      "stateMutability": "view",
      "type": "function",
      "constant": true
    },
    {
      "inputs": [],
      "name": "name",
      "outputs": [
        {
          "internalType": "string",
          "name": "",
          "type": "string"
        }
      ],
      "stateMutability": "view",
      "type": "function",
      "constant": true
    },
    {
      "inputs": [],
      "name": "owner",
      "outputs": [
        {
          "internalType": "address",
          "name": "",
          "type": "address"
        }
      ],
      "stateMutability": "view",
      "type": "function",
      "constant": true
    },
    {
      "inputs": [
        {
          "internalType": "uint256",
          "name": "tokenId",
          "type": "uint256"
        }
      ],
      "name": "ownerOf",
      "outputs": [
        {
          "internalType": "address",
          "name": "",
          "type": "address"
        }
      ],
      "stateMutability": "view",
      "type": "function",
      "constant": true
    },
    {
      "inputs": [],
      "name": "renounceOwnership",
      "outputs": [],
      "stateMutability": "nonpayable",
      "type": "function"
    },
    {
      "inputs": [
        {
          "internalType": "address",
          "name": "from",
          "type": "address"
        },
        {
          "internalType": "address",
          "name": "to",
          "type": "address"
        },
        {
          "internalType": "uint256",
          "name": "tokenId",
          "type": "uint256"
        }
      ],
      "name": "safeTransferFrom",
      "outputs": [],
      "stateMutability": "nonpayable",
      "type": "function"
    },
    {
      "inputs": [
        {
          "internalType": "address",
          "name": "from",
          "type": "address"
        },
        {
          "internalType": "address",
          "name": "to",
          "type": "address"
        },
        {
          "internalType": "uint256",
          "name": "tokenId",
          "type": "uint256"
        },
        {
          "internalType": "bytes",
          "name": "_data",
          "type": "bytes"
        }
      ],
      "name": "safeTransferFrom",
      "outputs": [],
      "stateMutability": "nonpayable",
      "type": "function"
    },
    {
      "inputs": [
        {
          "internalType": "address",
          "name": "operator",
          "type": "address"
        },
        {
          "internalType": "bool",
          "name": "approved",
          "type": "bool"
        }
      ],
      "name": "setApprovalForAll",
      "outputs": [],
      "stateMutability": "nonpayable",
      "type": "function"
    },
    {
      "inputs": [
        {
          "internalType": "bytes4",
          "name": "interfaceId",
          "type": "bytes4"
        }
      ],
      "name": "supportsInterface",
      "outputs": [
        {
          "internalType": "bool",
          "name": "",
          "type": "bool"
        }
      ],
      "stateMutability": "view",
      "type": "function",
      "constant": true
    },
    {
      "inputs": [],
      "name": "symbol",
      "outputs": [
        {
          "internalType": "string",
          "name": "",
          "type": "string"
        }
      ],
      "stateMutability": "view",
      "type": "function",
      "constant": true
    },
    {
      "inputs": [
        {
          "internalType": "uint256",
          "name": "tokenId",
          "type": "uint256"
        }
      ],
      "name": "tokenURI",
      "outputs": [
        {
          "internalType": "string",
          "name": "",
          "type": "string"
        }
      ],
      "stateMutability": "view",
      "type": "function",
      "constant": true
    },
    {
      "inputs": [
        {
          "internalType": "address",
          "name": "from",
          "type": "address"
        },
        {
          "internalType": "address",
          "name": "to",
          "type": "address"
        },
        {
          "internalType": "uint256",
          "name": "tokenId",
          "type": "uint256"
        }
      ],
      "name": "transferFrom",
      "outputs": [],
      "stateMutability": "nonpayable",
      "type": "function"
    },
    {
      "inputs": [
        {
          "internalType": "address",
          "name": "newOwner",
          "type": "address"
        }
      ],
      "name": "transferOwnership",
      "outputs": [],
      "stateMutability": "nonpayable",
      "type": "function"
    },
    {
      "inputs": [],
      "name": "getCID",
      "outputs": [
        {
          "internalType": "string",
          "name": "",
          "type": "string"
        }
      ],
      "stateMutability": "view",
      "type": "function",
      "constant": true
    },
    {
      "inputs": [],
      "name": "getTokenCap",
      "outputs": [
        {
          "internalType": "uint256",
          "name": "",
          "type": "uint256"
        }
      ],
      "stateMutability": "view",
      "type": "function",
      "constant": true
    },
    {
      "inputs": [
        {
          "internalType": "address",
          "name": "recipient",
          "type": "address"
        },
        {
          "components": [
            {
              "internalType": "uint256",
              "name": "id",
              "type": "uint256"
            },
            {
              "components": [
                {
                  "internalType": "uint256",
                  "name": "atk",
                  "type": "uint256"
                },
                {
                  "internalType": "uint256",
                  "name": "def",
                  "type": "uint256"
                },
                {
                  "internalType": "uint256",
                  "name": "speed",
                  "type": "uint256"
                }
              ],
              "internalType": "struct SpaceShipEventContract.SpaceShipStat",
              "name": "stats",
              "type": "tuple"
            },
            {
              "components": [
                {
                  "internalType": "uint256",
                  "name": "body",
                  "type": "uint256"
                },
                {
                  "internalType": "uint256",
                  "name": "bodySkin",
                  "type": "uint256"
                },
                {
                  "internalType": "uint256",
                  "name": "reactor",
                  "type": "uint256"
                },
                {
                  "internalType": "uint256",
                  "name": "reactorSkin",
                  "type": "uint256"
                },
                {
                  "internalType": "uint256",
                  "name": "weapon",
                  "type": "uint256"
                },
                {
                  "internalType": "uint256",
                  "name": "weaponSkin",
                  "type": "uint256"
                }
              ],
              "internalType": "struct SpaceShipEventContract.SpaceShipParts",
              "name": "parts",
              "type": "tuple"
            },
            {
              "internalType": "bool",
              "name": "isDestroyed",
              "type": "bool"
            }
          ],
          "internalType": "struct SpaceShipEventContract.SpaceShip",
          "name": "spaceShip",
          "type": "tuple"
        }
      ],
      "name": "_mint",
      "outputs": [
        {
          "internalType": "uint256",
          "name": "",
          "type": "uint256"
        }
      ],
      "stateMutability": "nonpayable",
      "type": "function"
    }
  ],
  "bytecode": "0x60806040523480156200001157600080fd5b506040516200214338038062002143833981016040819052620000349162000233565b604080518082018252601981527f53706163652053686970204576656e7420436f6e74726163740000000000000060208083019182528351808501909452600384526253504560e81b90840152815191929162000094916000916200018d565b508051620000aa9060019060208401906200018d565b505050620000c7620000c16200013760201b60201c565b6200013b565b60008211620000f35760405162461bcd60e51b8152600401620000ea9062000310565b60405180910390fd5b80518190620001165760405162461bcd60e51b8152600401620000ea9062000347565b81516200012b9060099060208501906200018d565b505050600a55620003db565b3390565b600780546001600160a01b038381166001600160a01b0319831681179093556040519116919082907f8be0079c531659141344cd1fd0a4f28419497f9722a3daafe3b4186f6b6457e090600090a35050565b8280546200019b9062000388565b90600052602060002090601f016020900481019282620001bf57600085556200020a565b82601f10620001da57805160ff19168380011785556200020a565b828001600101855582156200020a579182015b828111156200020a578251825591602001919060010190620001ed565b50620002189291506200021c565b5090565b5b808211156200021857600081556001016200021d565b6000806040838503121562000246578182fd5b8251602080850151919350906001600160401b038082111562000267578384fd5b818601915086601f8301126200027b578384fd5b815181811115620002905762000290620003c5565b604051601f8201601f1916810185018381118282101715620002b657620002b6620003c5565b6040528181528382018501891015620002cd578586fd5b8592505b81831015620002f05783830185015181840186015291840191620002d1565b818311156200030157858583830101525b80955050505050509250929050565b6020808252601a908201527f53706163652053686970204576656e743a206361702069732030000000000000604082015260600190565b60208082526021908201527f53706163652053686970204576656e743a206e6f204349442070726f766964656040820152601960fa1b606082015260800190565b6002810460018216806200039d57607f821691505b60208210811415620003bf57634e487b7160e01b600052602260045260246000fd5b50919050565b634e487b7160e01b600052604160045260246000fd5b611d5880620003eb6000396000f3fe608060405234801561001057600080fd5b50600436106101215760003560e01c80636352211e116100ad578063a22cb46511610071578063a22cb4651461022d578063b88d4fde14610240578063c87b56dd14610253578063e985e9c514610266578063f2fde38b1461027957610121565b80636352211e146101ef57806370a0823114610202578063715018a6146102155780638da5cb5b1461021d57806395d89b411461022557610121565b8063095ea7b3116100f4578063095ea7b31461018c578063234d00c2146101a157806323b872dd146101c15780632f087a28146101d457806342842e0e146101dc57610121565b806301ffc9a71461012657806302790e341461014f57806306fdde0314610164578063081812fc1461016c575b600080fd5b610139610134366004611470565b61028c565b604051610146919061168f565b60405180910390f35b6101576102d4565b604051610146919061169a565b610157610366565b61017f61017a3660046114a8565b610375565b604051610146919061163e565b61019f61019a366004611447565b6103c1565b005b6101b46101af366004611364565b610459565b6040516101469190611bb2565b61019f6101cf366004611248565b6104f3565b6101b461052b565b61019f6101ea366004611248565b610531565b61017f6101fd3660046114a8565b61054c565b6101b46102103660046111fc565b610581565b61019f6105c5565b61017f610610565b61015761061f565b61019f61023b36600461133b565b61062e565b61019f61024e366004611283565b6106fc565b6101576102613660046114a8565b61073b565b610139610274366004611216565b61085c565b61019f6102873660046111fc565b61088a565b60006001600160e01b031982166380ac58cd60e01b14806102bd57506001600160e01b03198216635b5e139f60e01b145b806102cc57506102cc826108fb565b90505b919050565b6060600980546102e390611c60565b80601f016020809104026020016040519081016040528092919081815260200182805461030f90611c60565b801561035c5780601f106103315761010080835404028352916020019161035c565b820191906000526020600020905b81548152906001019060200180831161033f57829003601f168201915b5050505050905090565b6060600080546102e390611c60565b600061038082610914565b6103a55760405162461bcd60e51b815260040161039c90611a07565b60405180910390fd5b506000908152600460205260409020546001600160a01b031690565b60006103cc8261054c565b9050806001600160a01b0316836001600160a01b031614156104005760405162461bcd60e51b815260040161039c90611b20565b806001600160a01b0316610412610931565b6001600160a01b0316148061042e575061042e81610274610931565b61044a5760405162461bcd60e51b815260040161039c90611843565b6104548383610935565b505050565b6000610463610931565b6001600160a01b0316610474610610565b6001600160a01b03161461049a5760405162461bcd60e51b815260040161039c90611a53565b60006104a660086109a3565b6000606085018190526040850151919250906104c1906109a7565b90506104cd82826109db565b6104d78285610a1f565b6104e18583610aa6565b6104eb6008610b85565b509392505050565b6105046104fe610931565b82610b8e565b6105205760405162461bcd60e51b815260040161039c90611b61565b610454838383610c0b565b600a5490565b610454838383604051806020016040528060008152506106fc565b6000818152600260205260408120546001600160a01b0316806102cc5760405162461bcd60e51b815260040161039c906118ea565b60006001600160a01b0382166105a95760405162461bcd60e51b815260040161039c906118a0565b506001600160a01b031660009081526003602052604090205490565b6105cd610931565b6001600160a01b03166105de610610565b6001600160a01b0316146106045760405162461bcd60e51b815260040161039c90611a53565b61060e6000610d38565b565b6007546001600160a01b031690565b6060600180546102e390611c60565b610636610931565b6001600160a01b0316826001600160a01b031614156106675760405162461bcd60e51b815260040161039c906117c0565b8060056000610674610931565b6001600160a01b03908116825260208083019390935260409182016000908120918716808252919093529120805460ff1916921515929092179091556106b8610931565b6001600160a01b03167f17307eab39ab6107e8899845ad3d59bd9653f200f220920489ca2b5937696c31836040516106f0919061168f565b60405180910390a35050565b61070d610707610931565b83610b8e565b6107295760405162461bcd60e51b815260040161039c90611b61565b61073584848484610d8a565b50505050565b606061074682610914565b6107625760405162461bcd60e51b815260040161039c906119b6565b6000828152600660205260408120805461077b90611c60565b80601f01602080910402602001604051908101604052809291908181526020018280546107a790611c60565b80156107f45780601f106107c9576101008083540402835291602001916107f4565b820191906000526020600020905b8154815290600101906020018083116107d757829003601f168201915b505050505090506000610805610dbd565b9050805160001415610819575090506102cf565b81511561084b578082604051602001610833929190611508565b604051602081830303815290604052925050506102cf565b61085484610dcf565b949350505050565b6001600160a01b03918216600090815260056020908152604080832093909416825291909152205460ff1690565b610892610931565b6001600160a01b03166108a3610610565b6001600160a01b0316146108c95760405162461bcd60e51b815260040161039c90611a53565b6001600160a01b0381166108ef5760405162461bcd60e51b815260040161039c906116ff565b6108f881610d38565b50565b6001600160e01b031981166301ffc9a760e01b14919050565b6000908152600260205260409020546001600160a01b0316151590565b3390565b600081815260046020526040902080546001600160a01b0319166001600160a01b038416908117909155819061096a8261054c565b6001600160a01b03167f8c5be1e5ebec7d5bd14f71427d1e84f3dd0314c0f7b2291e5b200ac8c7c3b92560405160405180910390a45050565b5490565b606060096109b483610e52565b6040516020016109c5929190611537565b6040516020818303038152906040529050919050565b6109e482610914565b610a005760405162461bcd60e51b815260040161039c90611933565b60008281526006602090815260409091208251610454928401906110c3565b6000918252600b60209081526040928390208251815582820151805160018301558083015160028301558401516003820155828401518051600483015591820151600582015592810151600684015560608082015160078501556080820151600885015560a09091015160098401550151600a909101805460ff1916911515919091179055565b6001600160a01b038216610acc5760405162461bcd60e51b815260040161039c90611981565b610ad581610914565b15610af25760405162461bcd60e51b815260040161039c90611745565b610afe60008383610454565b6001600160a01b0382166000908152600360205260408120805460019290610b27908490611bf1565b909155505060008181526002602052604080822080546001600160a01b0319166001600160a01b03861690811790915590518392907fddf252ad1be2c89b69c2b068fc378daa952ba7f163c4a11628f55a4df523b3ef908290a45050565b80546001019055565b6000610b9982610914565b610bb55760405162461bcd60e51b815260040161039c906117f7565b6000610bc08361054c565b9050806001600160a01b0316846001600160a01b03161480610bfb5750836001600160a01b0316610bf084610375565b6001600160a01b0316145b806108545750610854818561085c565b826001600160a01b0316610c1e8261054c565b6001600160a01b031614610c445760405162461bcd60e51b815260040161039c90611a88565b6001600160a01b038216610c6a5760405162461bcd60e51b815260040161039c9061177c565b610c75838383610454565b610c80600082610935565b6001600160a01b0383166000908152600360205260408120805460019290610ca9908490611c1d565b90915550506001600160a01b0382166000908152600360205260408120805460019290610cd7908490611bf1565b909155505060008181526002602052604080822080546001600160a01b0319166001600160a01b0386811691821790925591518493918716917fddf252ad1be2c89b69c2b068fc378daa952ba7f163c4a11628f55a4df523b3ef91a4505050565b600780546001600160a01b038381166001600160a01b0319831681179093556040519116919082907f8be0079c531659141344cd1fd0a4f28419497f9722a3daafe3b4186f6b6457e090600090a35050565b610d95848484610c0b565b610da184848484610e87565b6107355760405162461bcd60e51b815260040161039c906116ad565b60408051602081019091526000815290565b6060610dda82610914565b610df65760405162461bcd60e51b815260040161039c90611ad1565b6000610e00610dbd565b90506000815111610e205760405180602001604052806000815250610e4b565b80610e2a84610fa2565b604051602001610e3b929190611508565b6040516020818303038152906040525b9392505050565b6060816000015182602001518360400151846060015185608001518660a001516040516020016109c5969594939291906115dd565b6000610e9b846001600160a01b03166110bd565b15610f9757836001600160a01b031663150b7a02610eb7610931565b8786866040518563ffffffff1660e01b8152600401610ed99493929190611652565b602060405180830381600087803b158015610ef357600080fd5b505af1925050508015610f23575060408051601f3d908101601f19168201909252610f209181019061148c565b60015b610f7d573d808015610f51576040519150601f19603f3d011682016040523d82523d6000602084013e610f56565b606091505b508051610f755760405162461bcd60e51b815260040161039c906116ad565b805181602001fd5b6001600160e01b031916630a85bd0160e11b149050610854565b506001949350505050565b606081610fc757506040805180820190915260018152600360fc1b60208201526102cf565b8160005b8115610ff15780610fdb81611c9b565b9150610fea9050600a83611c09565b9150610fcb565b60008167ffffffffffffffff81111561101a57634e487b7160e01b600052604160045260246000fd5b6040519080825280601f01601f191660200182016040528015611044576020820181803683370190505b5090505b841561085457611059600183611c1d565b9150611066600a86611cb6565b611071906030611bf1565b60f81b81838151811061109457634e487b7160e01b600052603260045260246000fd5b60200101906001600160f81b031916908160001a9053506110b6600a86611c09565b9450611048565b3b151590565b8280546110cf90611c60565b90600052602060002090601f0160209004810192826110f15760008555611137565b82601f1061110a57805160ff1916838001178555611137565b82800160010185558215611137579182015b8281111561113757825182559160200191906001019061111c565b50611143929150611147565b5090565b5b808211156111435760008155600101611148565b80356001600160a01b03811681146102cf57600080fd5b803580151581146102cf57600080fd5b600060c08284031215611194578081fd5b60405160c0810181811067ffffffffffffffff821117156111b7576111b7611cf6565b8060405250809150823581526020830135602082015260408301356040820152606083013560608201526080830135608082015260a083013560a08201525092915050565b60006020828403121561120d578081fd5b610e4b8261115c565b60008060408385031215611228578081fd5b6112318361115c565b915061123f6020840161115c565b90509250929050565b60008060006060848603121561125c578081fd5b6112658461115c565b92506112736020850161115c565b9150604084013590509250925092565b60008060008060808587031215611298578081fd5b6112a18561115c565b935060206112b081870161115c565b935060408601359250606086013567ffffffffffffffff808211156112d3578384fd5b818801915088601f8301126112e6578384fd5b8135818111156112f8576112f8611cf6565b61130a601f8201601f19168501611bbb565b9150808252898482850101111561131f578485fd5b8084840185840137810190920192909252939692955090935050565b6000806040838503121561134d578182fd5b6113568361115c565b915061123f60208401611173565b600080828403610180811215611378578283fd5b6113818461115c565b925061016080601f1983011215611396578283fd5b604080516080810167ffffffffffffffff82821081831117156113bb576113bb611cf6565b818452602089013583526060603f19870112156113d6578687fd5b8351955060608601915085821081831117156113f4576113f4611cf6565b5080835250818701358452606087013560208501526080870135828501528360208201526114258860a08901611183565b82820152611434838801611173565b6060820152809450505050509250929050565b60008060408385031215611459578182fd5b6114628361115c565b946020939093013593505050565b600060208284031215611481578081fd5b8135610e4b81611d0c565b60006020828403121561149d578081fd5b8151610e4b81611d0c565b6000602082840312156114b9578081fd5b5035919050565b600081518084526114d8816020860160208601611c34565b601f01601f19169290920160200192915050565b600081516114fe818560208601611c34565b9290920192915050565b6000835161151a818460208801611c34565b83519083019061152e818360208801611c34565b01949350505050565b825460009081906002810460018083168061155357607f831692505b602080841082141561157357634e487b7160e01b87526022600452602487fd5b8180156115875760018114611598576115c4565b60ff198616895284890196506115c4565b6115a18b611be5565b885b868110156115bc5781548b8201529085019083016115a3565b505084890196505b5050505050506115d481856114ec565b95945050505050565b958652602d60f81b602087018190526021870195909552605f60f81b60418701819052604287019490945260628601859052606386019290925260838501839052608485015260a484019290925260a583019190915260c582015260c60190565b6001600160a01b0391909116815260200190565b6001600160a01b0385811682528416602082015260408101839052608060608201819052600090611685908301846114c0565b9695505050505050565b901515815260200190565b600060208252610e4b60208301846114c0565b60208082526032908201527f4552433732313a207472616e7366657220746f206e6f6e20455243373231526560408201527131b2b4bb32b91034b6b83632b6b2b73a32b960711b606082015260800190565b60208082526026908201527f4f776e61626c653a206e6577206f776e657220697320746865207a65726f206160408201526564647265737360d01b606082015260800190565b6020808252601c908201527f4552433732313a20746f6b656e20616c7265616479206d696e74656400000000604082015260600190565b60208082526024908201527f4552433732313a207472616e7366657220746f20746865207a65726f206164646040820152637265737360e01b606082015260800190565b60208082526019908201527f4552433732313a20617070726f766520746f2063616c6c657200000000000000604082015260600190565b6020808252602c908201527f4552433732313a206f70657261746f7220717565727920666f72206e6f6e657860408201526b34b9ba32b73a103a37b5b2b760a11b606082015260800190565b60208082526038908201527f4552433732313a20617070726f76652063616c6c6572206973206e6f74206f7760408201527f6e6572206e6f7220617070726f76656420666f7220616c6c0000000000000000606082015260800190565b6020808252602a908201527f4552433732313a2062616c616e636520717565727920666f7220746865207a65604082015269726f206164647265737360b01b606082015260800190565b60208082526029908201527f4552433732313a206f776e657220717565727920666f72206e6f6e657869737460408201526832b73a103a37b5b2b760b91b606082015260800190565b6020808252602e908201527f45524337323155524953746f726167653a2055524920736574206f66206e6f6e60408201526d32bc34b9ba32b73a103a37b5b2b760911b606082015260800190565b6020808252818101527f4552433732313a206d696e7420746f20746865207a65726f2061646472657373604082015260600190565b60208082526031908201527f45524337323155524953746f726167653a2055524920717565727920666f72206040820152703737b732bc34b9ba32b73a103a37b5b2b760791b606082015260800190565b6020808252602c908201527f4552433732313a20617070726f76656420717565727920666f72206e6f6e657860408201526b34b9ba32b73a103a37b5b2b760a11b606082015260800190565b6020808252818101527f4f776e61626c653a2063616c6c6572206973206e6f7420746865206f776e6572604082015260600190565b60208082526029908201527f4552433732313a207472616e73666572206f6620746f6b656e2074686174206960408201526839903737ba1037bbb760b91b606082015260800190565b6020808252602f908201527f4552433732314d657461646174613a2055524920717565727920666f72206e6f60408201526e3732bc34b9ba32b73a103a37b5b2b760891b606082015260800190565b60208082526021908201527f4552433732313a20617070726f76616c20746f2063757272656e74206f776e656040820152603960f91b606082015260800190565b60208082526031908201527f4552433732313a207472616e736665722063616c6c6572206973206e6f74206f6040820152701ddb995c881b9bdc88185c1c1c9bdd9959607a1b606082015260800190565b90815260200190565b60405181810167ffffffffffffffff81118282101715611bdd57611bdd611cf6565b604052919050565b60009081526020902090565b60008219821115611c0457611c04611cca565b500190565b600082611c1857611c18611ce0565b500490565b600082821015611c2f57611c2f611cca565b500390565b60005b83811015611c4f578181015183820152602001611c37565b838111156107355750506000910152565b600281046001821680611c7457607f821691505b60208210811415611c9557634e487b7160e01b600052602260045260246000fd5b50919050565b6000600019821415611caf57611caf611cca565b5060010190565b600082611cc557611cc5611ce0565b500690565b634e487b7160e01b600052601160045260246000fd5b634e487b7160e01b600052601260045260246000fd5b634e487b7160e01b600052604160045260246000fd5b6001600160e01b0319811681146108f857600080fdfea26469706673582212201fbce05439a1ca33d419f090429fbb7514d92e0d6419d0bee3782d331e88d9cf64736f6c63430008000033",
  "immutableReferences": {},
  "source": "// SPDX-License-Identifier: MIT\n\npragma solidity ^0.8.0;\n\nimport \"@openzeppelin/contracts/token/ERC721/extensions/ERC721URIStorage.sol\";\nimport \"@openzeppelin/contracts/access/Ownable.sol\";\nimport \"@openzeppelin/contracts/utils/Counters.sol\";\n\ncontract SpaceShipEventContract is ERC721URIStorage, Ownable {\n    using Counters for Counters.Counter;\n    using Strings for uint256;\n    struct SpaceShipStat {\n        uint256 atk;\n        uint256 def;\n        uint256 speed;\n    }\n    struct SpaceShipParts {\n        uint256 body;\n        uint256 bodySkin;\n        uint256 reactor;\n        uint256 reactorSkin;\n        uint256 weapon;\n        uint256 weaponSkin;\n    }\n    struct SpaceShip {\n        uint256 id;\n        SpaceShipStat stats;\n        SpaceShipParts parts;\n        bool isDestroyed;\n    }\n    Counters.Counter _tokenIds;\n    string private _CID;\n    uint256 private _tokenCap;\n    mapping(uint256 => SpaceShip) _spaceShipDatas;\n\n    constructor(uint256 tokenCap, string memory CID) ERC721(\"Space Ship Event Contract\", \"SPE\") {\n        require(tokenCap > 0, \"Space Ship Event: cap is 0\");\n        bytes memory tempCID = bytes(CID);\n        require(tempCID.length > 0, \"Space Ship Event: no CID provided\");\n        _CID = CID;\n        _tokenCap = tokenCap;\n    }\n\n    function getCID() public view virtual returns (string memory) {\n        return _CID;\n    }\n\n    function getTokenCap() public view virtual returns (uint256) {\n        return _tokenCap;\n    }\n\n    function partsToStr(SpaceShipParts memory parts) internal pure returns (string memory) {\n      return string(abi.encodePacked(parts.body, \"-\", parts.bodySkin, \"_\",parts.reactor, \"-\", parts.reactorSkin, \"_\",parts.weapon, \"-\", parts.weaponSkin, \"_\"));\n    }\n\n    function _createTokenURI(SpaceShipParts memory parts) internal view returns(string memory) {\n        return string(abi.encodePacked(_CID, partsToStr(parts)));\n    }\n\n    function _setSpaceShipForToken(uint256 tokenId, SpaceShip memory spaceShip) internal {\n        _spaceShipDatas[tokenId] = spaceShip;\n    }\n\n    function _destroySpaceShip(uint256 tokenId) internal {\n        _spaceShipDatas[tokenId].isDestroyed = true;\n        //TODO: change ifps for destroyed ship , sorry boys !\n    }\n\n    function _mint(address recipient, SpaceShip memory spaceShip) public onlyOwner returns(uint256) {\n        uint256 newId = _tokenIds.current();\n        spaceShip.isDestroyed = false;\n        string memory uri = _createTokenURI(spaceShip.parts);\n        _setTokenURI(newId, uri);\n        _setSpaceShipForToken(newId, spaceShip);\n        _mint(recipient, newId);\n        _tokenIds.increment();\n        return newId;\n    }\n}\n",
  "sourcePath": "G:\\NFT\\NFT-SpaceShip-Event\\contracts\\SpaceShipEventContract.sol",
  "compiler": {
    "name": "solc",
    "version": "0.8.0+commit.c7dfd78e.Emscripten.clang"
  },
  "schemaVersion": "3.4.3",
  "updatedAt": "2021-09-22T19:15:28.908Z",
  "networkType": "ethereum",
  "devdoc": {
    "kind": "dev",
    "methods": {
      "approve(address,uint256)": {
        "details": "See {IERC721-approve}."
      },
      "balanceOf(address)": {
        "details": "See {IERC721-balanceOf}."
      },
      "getApproved(uint256)": {
        "details": "See {IERC721-getApproved}."
      },
      "isApprovedForAll(address,address)": {
        "details": "See {IERC721-isApprovedForAll}."
      },
      "name()": {
        "details": "See {IERC721Metadata-name}."
      },
      "owner()": {
        "details": "Returns the address of the current owner."
      },
      "ownerOf(uint256)": {
        "details": "See {IERC721-ownerOf}."
      },
      "renounceOwnership()": {
        "details": "Leaves the contract without owner. It will not be possible to call `onlyOwner` functions anymore. Can only be called by the current owner. NOTE: Renouncing ownership will leave the contract without an owner, thereby removing any functionality that is only available to the owner."
      },
      "safeTransferFrom(address,address,uint256)": {
        "details": "See {IERC721-safeTransferFrom}."
      },
      "safeTransferFrom(address,address,uint256,bytes)": {
        "details": "See {IERC721-safeTransferFrom}."
      },
      "setApprovalForAll(address,bool)": {
        "details": "See {IERC721-setApprovalForAll}."
      },
      "supportsInterface(bytes4)": {
        "details": "See {IERC165-supportsInterface}."
      },
      "symbol()": {
        "details": "See {IERC721Metadata-symbol}."
      },
      "tokenURI(uint256)": {
        "details": "See {IERC721Metadata-tokenURI}."
      },
      "transferFrom(address,address,uint256)": {
        "details": "See {IERC721-transferFrom}."
      },
      "transferOwnership(address)": {
        "details": "Transfers ownership of the contract to a new account (`newOwner`). Can only be called by the current owner."
      }
    },
    "version": 1
  },
  "userdoc": {
    "kind": "user",
    "methods": {},
    "version": 1
  }
}