{
  "contractName": "SpaceShipEventContract",
  "abi": [
    {
      "inputs": [
        {
          "internalType": "string",
          "name": "CID",
          "type": "string"
        }
      ],
      "stateMutability": "nonpayable",
      "type": "constructor"
    },
    {
      "anonymous": false,
      "inputs": [
        {
          "indexed": true,
          "internalType": "address",
          "name": "owner",
          "type": "address"
        },
        {
          "indexed": true,
          "internalType": "address",
          "name": "approved",
          "type": "address"
        },
        {
          "indexed": true,
          "internalType": "uint256",
          "name": "tokenId",
          "type": "uint256"
        }
      ],
      "name": "Approval",
      "type": "event"
    },
    {
      "anonymous": false,
      "inputs": [
        {
          "indexed": true,
          "internalType": "address",
          "name": "owner",
          "type": "address"
        },
        {
          "indexed": true,
          "internalType": "address",
          "name": "operator",
          "type": "address"
        },
        {
          "indexed": false,
          "internalType": "bool",
          "name": "approved",
          "type": "bool"
        }
      ],
      "name": "ApprovalForAll",
      "type": "event"
    },
    {
      "anonymous": false,
      "inputs": [
        {
          "indexed": true,
          "internalType": "address",
          "name": "previousOwner",
          "type": "address"
        },
        {
          "indexed": true,
          "internalType": "address",
          "name": "newOwner",
          "type": "address"
        }
      ],
      "name": "OwnershipTransferred",
      "type": "event"
    },
    {
      "anonymous": false,
      "inputs": [
        {
          "indexed": true,
          "internalType": "address",
          "name": "from",
          "type": "address"
        },
        {
          "indexed": true,
          "internalType": "address",
          "name": "to",
          "type": "address"
        },
        {
          "indexed": true,
          "internalType": "uint256",
          "name": "tokenId",
          "type": "uint256"
        }
      ],
      "name": "Transfer",
      "type": "event"
    },
    {
      "inputs": [
        {
          "internalType": "address",
          "name": "to",
          "type": "address"
        },
        {
          "internalType": "uint256",
          "name": "tokenId",
          "type": "uint256"
        }
      ],
      "name": "approve",
      "outputs": [],
      "stateMutability": "nonpayable",
      "type": "function"
    },
    {
      "inputs": [
        {
          "internalType": "address",
          "name": "owner",
          "type": "address"
        }
      ],
      "name": "balanceOf",
      "outputs": [
        {
          "internalType": "uint256",
          "name": "",
          "type": "uint256"
        }
      ],
      "stateMutability": "view",
      "type": "function",
      "constant": true
    },
    {
      "inputs": [
        {
          "internalType": "uint256",
          "name": "tokenId",
          "type": "uint256"
        }
      ],
      "name": "getApproved",
      "outputs": [
        {
          "internalType": "address",
          "name": "",
          "type": "address"
        }
      ],
      "stateMutability": "view",
      "type": "function",
      "constant": true
    },
    {
      "inputs": [
        {
          "internalType": "address",
          "name": "owner",
          "type": "address"
        },
        {
          "internalType": "address",
          "name": "operator",
          "type": "address"
        }
      ],
      "name": "isApprovedForAll",
      "outputs": [
        {
          "internalType": "bool",
          "name": "",
          "type": "bool"
        }
      ],
      "stateMutability": "view",
      "type": "function",
      "constant": true
    },
    {
      "inputs": [],
      "name": "name",
      "outputs": [
        {
          "internalType": "string",
          "name": "",
          "type": "string"
        }
      ],
      "stateMutability": "view",
      "type": "function",
      "constant": true
    },
    {
      "inputs": [],
      "name": "owner",
      "outputs": [
        {
          "internalType": "address",
          "name": "",
          "type": "address"
        }
      ],
      "stateMutability": "view",
      "type": "function",
      "constant": true
    },
    {
      "inputs": [
        {
          "internalType": "uint256",
          "name": "tokenId",
          "type": "uint256"
        }
      ],
      "name": "ownerOf",
      "outputs": [
        {
          "internalType": "address",
          "name": "",
          "type": "address"
        }
      ],
      "stateMutability": "view",
      "type": "function",
      "constant": true
    },
    {
      "inputs": [],
      "name": "renounceOwnership",
      "outputs": [],
      "stateMutability": "nonpayable",
      "type": "function"
    },
    {
      "inputs": [
        {
          "internalType": "address",
          "name": "from",
          "type": "address"
        },
        {
          "internalType": "address",
          "name": "to",
          "type": "address"
        },
        {
          "internalType": "uint256",
          "name": "tokenId",
          "type": "uint256"
        }
      ],
      "name": "safeTransferFrom",
      "outputs": [],
      "stateMutability": "nonpayable",
      "type": "function"
    },
    {
      "inputs": [
        {
          "internalType": "address",
          "name": "from",
          "type": "address"
        },
        {
          "internalType": "address",
          "name": "to",
          "type": "address"
        },
        {
          "internalType": "uint256",
          "name": "tokenId",
          "type": "uint256"
        },
        {
          "internalType": "bytes",
          "name": "_data",
          "type": "bytes"
        }
      ],
      "name": "safeTransferFrom",
      "outputs": [],
      "stateMutability": "nonpayable",
      "type": "function"
    },
    {
      "inputs": [
        {
          "internalType": "address",
          "name": "operator",
          "type": "address"
        },
        {
          "internalType": "bool",
          "name": "approved",
          "type": "bool"
        }
      ],
      "name": "setApprovalForAll",
      "outputs": [],
      "stateMutability": "nonpayable",
      "type": "function"
    },
    {
      "inputs": [
        {
          "internalType": "bytes4",
          "name": "interfaceId",
          "type": "bytes4"
        }
      ],
      "name": "supportsInterface",
      "outputs": [
        {
          "internalType": "bool",
          "name": "",
          "type": "bool"
        }
      ],
      "stateMutability": "view",
      "type": "function",
      "constant": true
    },
    {
      "inputs": [],
      "name": "symbol",
      "outputs": [
        {
          "internalType": "string",
          "name": "",
          "type": "string"
        }
      ],
      "stateMutability": "view",
      "type": "function",
      "constant": true
    },
    {
      "inputs": [
        {
          "internalType": "uint256",
          "name": "tokenId",
          "type": "uint256"
        }
      ],
      "name": "tokenURI",
      "outputs": [
        {
          "internalType": "string",
          "name": "",
          "type": "string"
        }
      ],
      "stateMutability": "view",
      "type": "function",
      "constant": true
    },
    {
      "inputs": [
        {
          "internalType": "address",
          "name": "from",
          "type": "address"
        },
        {
          "internalType": "address",
          "name": "to",
          "type": "address"
        },
        {
          "internalType": "uint256",
          "name": "tokenId",
          "type": "uint256"
        }
      ],
      "name": "transferFrom",
      "outputs": [],
      "stateMutability": "nonpayable",
      "type": "function"
    },
    {
      "inputs": [
        {
          "internalType": "address",
          "name": "newOwner",
          "type": "address"
        }
      ],
      "name": "transferOwnership",
      "outputs": [],
      "stateMutability": "nonpayable",
      "type": "function"
    },
    {
      "inputs": [],
      "name": "getCID",
      "outputs": [
        {
          "internalType": "string",
          "name": "",
          "type": "string"
        }
      ],
      "stateMutability": "view",
      "type": "function",
      "constant": true
    },
    {
      "inputs": [
        {
          "internalType": "uint256",
          "name": "tokenId",
          "type": "uint256"
        }
      ],
      "name": "getShip",
      "outputs": [
        {
          "components": [
            {
              "internalType": "uint256",
              "name": "id",
              "type": "uint256"
            },
            {
              "components": [
                {
                  "internalType": "uint256",
                  "name": "atk",
                  "type": "uint256"
                },
                {
                  "internalType": "uint256",
                  "name": "def",
                  "type": "uint256"
                },
                {
                  "internalType": "uint256",
                  "name": "speed",
                  "type": "uint256"
                }
              ],
              "internalType": "struct SpaceShips.ShipStat",
              "name": "stats",
              "type": "tuple"
            },
            {
              "components": [
                {
                  "internalType": "uint256",
                  "name": "body",
                  "type": "uint256"
                },
                {
                  "internalType": "uint256",
                  "name": "bodySkin",
                  "type": "uint256"
                },
                {
                  "internalType": "uint256",
                  "name": "reactor",
                  "type": "uint256"
                },
                {
                  "internalType": "uint256",
                  "name": "reactorSkin",
                  "type": "uint256"
                },
                {
                  "internalType": "uint256",
                  "name": "weapon",
                  "type": "uint256"
                },
                {
                  "internalType": "uint256",
                  "name": "weaponSkin",
                  "type": "uint256"
                }
              ],
              "internalType": "struct SpaceShips.ShipParts",
              "name": "parts",
              "type": "tuple"
            },
            {
              "internalType": "bool",
              "name": "isDestroyed",
              "type": "bool"
            }
          ],
          "internalType": "struct SpaceShips.Ship",
          "name": "",
          "type": "tuple"
        }
      ],
      "stateMutability": "view",
      "type": "function",
      "constant": true
    },
    {
      "inputs": [
        {
          "internalType": "address",
          "name": "recipient",
          "type": "address"
        },
        {
          "components": [
            {
              "internalType": "uint256",
              "name": "id",
              "type": "uint256"
            },
            {
              "components": [
                {
                  "internalType": "uint256",
                  "name": "atk",
                  "type": "uint256"
                },
                {
                  "internalType": "uint256",
                  "name": "def",
                  "type": "uint256"
                },
                {
                  "internalType": "uint256",
                  "name": "speed",
                  "type": "uint256"
                }
              ],
              "internalType": "struct SpaceShips.ShipStat",
              "name": "stats",
              "type": "tuple"
            },
            {
              "components": [
                {
                  "internalType": "uint256",
                  "name": "body",
                  "type": "uint256"
                },
                {
                  "internalType": "uint256",
                  "name": "bodySkin",
                  "type": "uint256"
                },
                {
                  "internalType": "uint256",
                  "name": "reactor",
                  "type": "uint256"
                },
                {
                  "internalType": "uint256",
                  "name": "reactorSkin",
                  "type": "uint256"
                },
                {
                  "internalType": "uint256",
                  "name": "weapon",
                  "type": "uint256"
                },
                {
                  "internalType": "uint256",
                  "name": "weaponSkin",
                  "type": "uint256"
                }
              ],
              "internalType": "struct SpaceShips.ShipParts",
              "name": "parts",
              "type": "tuple"
            },
            {
              "internalType": "bool",
              "name": "isDestroyed",
              "type": "bool"
            }
          ],
          "internalType": "struct SpaceShips.Ship",
          "name": "spaceShip",
          "type": "tuple"
        }
      ],
      "name": "mintSpaceShip",
      "outputs": [
        {
          "internalType": "uint256",
          "name": "",
          "type": "uint256"
        }
      ],
      "stateMutability": "nonpayable",
      "type": "function"
    }
  ],
  "bytecode": "0x60806040523480156200001157600080fd5b50604051620022a3380380620022a383398101604081905262000034916200020d565b604080518082018252601981527f53706163652053686970204576656e7420436f6e74726163740000000000000060208083019182528351808501909452600384526253504560e81b908401528151919291620000949160009162000167565b508051620000aa90600190602084019062000167565b505050620000c7620000c16200011160201b60201c565b62000115565b80518190620000f35760405162461bcd60e51b8152600401620000ea90620002dc565b60405180910390fd5b81516200010890600990602085019062000167565b50505062000370565b3390565b600780546001600160a01b038381166001600160a01b0319831681179093556040519116919082907f8be0079c531659141344cd1fd0a4f28419497f9722a3daafe3b4186f6b6457e090600090a35050565b82805462000175906200031d565b90600052602060002090601f016020900481019282620001995760008555620001e4565b82601f10620001b457805160ff1916838001178555620001e4565b82800160010185558215620001e4579182015b82811115620001e4578251825591602001919060010190620001c7565b50620001f2929150620001f6565b5090565b5b80821115620001f25760008155600101620001f7565b6000602080838503121562000220578182fd5b82516001600160401b038082111562000237578384fd5b818501915085601f8301126200024b578384fd5b8151818111156200026057620002606200035a565b604051601f8201601f19168101850183811182821017156200028657620002866200035a565b60405281815283820185018810156200029d578586fd5b8592505b81831015620002c05783830185015181840186015291840191620002a1565b81831115620002d157858583830101525b979650505050505050565b60208082526021908201527f53706163652053686970204576656e743a206e6f204349442070726f766964656040820152601960fa1b606082015260800190565b6002810460018216806200033257607f821691505b602082108114156200035457634e487b7160e01b600052602260045260246000fd5b50919050565b634e487b7160e01b600052604160045260246000fd5b611f2380620003806000396000f3fe608060405234801561001057600080fd5b50600436106101215760003560e01c80636352211e116100ad578063a22cb46511610071578063a22cb46514610245578063b88d4fde14610258578063c87b56dd1461026b578063e985e9c51461027e578063f2fde38b1461029157610121565b80636352211e1461020757806370a082311461021a578063715018a61461022d5780638da5cb5b1461023557806395d89b411461023d57610121565b8063095ea7b3116100f4578063095ea7b31461018c57806323b872dd146101a15780634025b22d146101b457806342842e0e146101d457806356a11f63146101e757610121565b806301ffc9a71461012657806302790e341461014f57806306fdde0314610164578063081812fc1461016c575b600080fd5b610139610134366004611577565b6102a4565b60405161014691906117d1565b60405180910390f35b6101576102ec565b60405161014691906117dc565b61015761037e565b61017f61017a3660046115af565b61038d565b6040516101469190611780565b61019f61019a36600461154e565b6103d9565b005b61019f6101af36600461134f565b610471565b6101c76101c23660046115af565b6104a9565b6040516101469190611cf4565b61019f6101e236600461134f565b610557565b6101fa6101f536600461146b565b610572565b6040516101469190611d7d565b61017f6102153660046115af565b6105c2565b6101fa610228366004611303565b6105f7565b61019f61063b565b61017f610686565b610157610695565b61019f610253366004611442565b6106a4565b61019f61026636600461138a565b610772565b6101576102793660046115af565b6107b1565b61013961028c36600461131d565b6108d2565b61019f61029f366004611303565b610900565b60006001600160e01b031982166380ac58cd60e01b14806102d557506001600160e01b03198216635b5e139f60e01b145b806102e457506102e482610971565b90505b919050565b6060600980546102fb90611e2b565b80601f016020809104026020016040519081016040528092919081815260200182805461032790611e2b565b80156103745780601f1061034957610100808354040283529160200191610374565b820191906000526020600020905b81548152906001019060200180831161035757829003601f168201915b5050505050905090565b6060600080546102fb90611e2b565b60006103988261098a565b6103bd5760405162461bcd60e51b81526004016103b490611b49565b60405180910390fd5b506000908152600460205260409020546001600160a01b031690565b60006103e4826105c2565b9050806001600160a01b0316836001600160a01b031614156104185760405162461bcd60e51b81526004016103b490611c62565b806001600160a01b031661042a6109a7565b6001600160a01b0316148061044657506104468161028c6109a7565b6104625760405162461bcd60e51b81526004016103b490611985565b61046c83836109ab565b505050565b61048261047c6109a7565b82610a19565b61049e5760405162461bcd60e51b81526004016103b490611ca3565b61046c838383610a96565b6104b161113f565b506000908152600b6020908152604091829020825160808082018552825482528451606080820187526001850154825260028501548287015260038501548288015283860191909152855160c08101875260048501548152600585015495810195909552600684015485870152600784015485820152600884015491850191909152600983015460a085015293810192909252600a015460ff1615159181019190915290565b61046c83838360405180602001604052806000815250610772565b60008061057f6008610bc3565b905061058b8482610bc7565b600061059a8460400151610ca6565b90506105a68282610cda565b6105b08285610d1e565b6105ba6008610dab565b509392505050565b6000818152600260205260408120546001600160a01b0316806102e45760405162461bcd60e51b81526004016103b490611a2c565b60006001600160a01b03821661061f5760405162461bcd60e51b81526004016103b4906119e2565b506001600160a01b031660009081526003602052604090205490565b6106436109a7565b6001600160a01b0316610654610686565b6001600160a01b03161461067a5760405162461bcd60e51b81526004016103b490611b95565b6106846000610db4565b565b6007546001600160a01b031690565b6060600180546102fb90611e2b565b6106ac6109a7565b6001600160a01b0316826001600160a01b031614156106dd5760405162461bcd60e51b81526004016103b490611902565b80600560006106ea6109a7565b6001600160a01b03908116825260208083019390935260409182016000908120918716808252919093529120805460ff19169215159290921790915561072e6109a7565b6001600160a01b03167f17307eab39ab6107e8899845ad3d59bd9653f200f220920489ca2b5937696c318360405161076691906117d1565b60405180910390a35050565b61078361077d6109a7565b83610a19565b61079f5760405162461bcd60e51b81526004016103b490611ca3565b6107ab84848484610e06565b50505050565b60606107bc8261098a565b6107d85760405162461bcd60e51b81526004016103b490611af8565b600082815260066020526040812080546107f190611e2b565b80601f016020809104026020016040519081016040528092919081815260200182805461081d90611e2b565b801561086a5780601f1061083f5761010080835404028352916020019161086a565b820191906000526020600020905b81548152906001019060200180831161084d57829003601f168201915b50505050509050600061087b610e39565b905080516000141561088f575090506102e7565b8151156108c15780826040516020016108a992919061163a565b604051602081830303815290604052925050506102e7565b6108ca84610e4b565b949350505050565b6001600160a01b03918216600090815260056020908152604080832093909416825291909152205460ff1690565b6109086109a7565b6001600160a01b0316610919610686565b6001600160a01b03161461093f5760405162461bcd60e51b81526004016103b490611b95565b6001600160a01b0381166109655760405162461bcd60e51b81526004016103b490611841565b61096e81610db4565b50565b6001600160e01b031981166301ffc9a760e01b14919050565b6000908152600260205260409020546001600160a01b0316151590565b3390565b600081815260046020526040902080546001600160a01b0319166001600160a01b03841690811790915581906109e0826105c2565b6001600160a01b03167f8c5be1e5ebec7d5bd14f71427d1e84f3dd0314c0f7b2291e5b200ac8c7c3b92560405160405180910390a45050565b6000610a248261098a565b610a405760405162461bcd60e51b81526004016103b490611939565b6000610a4b836105c2565b9050806001600160a01b0316846001600160a01b03161480610a865750836001600160a01b0316610a7b8461038d565b6001600160a01b0316145b806108ca57506108ca81856108d2565b826001600160a01b0316610aa9826105c2565b6001600160a01b031614610acf5760405162461bcd60e51b81526004016103b490611bca565b6001600160a01b038216610af55760405162461bcd60e51b81526004016103b4906118be565b610b0083838361046c565b610b0b6000826109ab565b6001600160a01b0383166000908152600360205260408120805460019290610b34908490611de8565b90915550506001600160a01b0382166000908152600360205260408120805460019290610b62908490611dbc565b909155505060008181526002602052604080822080546001600160a01b0319166001600160a01b0386811691821790925591518493918716917fddf252ad1be2c89b69c2b068fc378daa952ba7f163c4a11628f55a4df523b3ef91a4505050565b5490565b6001600160a01b038216610bed5760405162461bcd60e51b81526004016103b490611ac3565b610bf68161098a565b15610c135760405162461bcd60e51b81526004016103b490611887565b610c1f6000838361046c565b6001600160a01b0382166000908152600360205260408120805460019290610c48908490611dbc565b909155505060008181526002602052604080822080546001600160a01b0319166001600160a01b03861690811790915590518392907fddf252ad1be2c89b69c2b068fc378daa952ba7f163c4a11628f55a4df523b3ef908290a45050565b60606009610cb383610ece565b604051602001610cc4929190611669565b6040516020818303038152906040529050919050565b610ce38261098a565b610cff5760405162461bcd60e51b81526004016103b490611a75565b6000828152600660209081526040909120825161046c92840190611173565b60006060828101828152848452938252600b60209081526040928390208451815581850151805160018301558083015160028301558401516003820155938301518051600486015590810151600585015591820151600684015581015160078301556080810151600883015560a0015160098201559051600a909101805460ff1916911515919091179055565b80546001019055565b600780546001600160a01b038381166001600160a01b0319831681179093556040519116919082907f8be0079c531659141344cd1fd0a4f28419497f9722a3daafe3b4186f6b6457e090600090a35050565b610e11848484610a96565b610e1d84848484610f03565b6107ab5760405162461bcd60e51b81526004016103b4906117ef565b60408051602081019091526000815290565b6060610e568261098a565b610e725760405162461bcd60e51b81526004016103b490611c13565b6000610e7c610e39565b90506000815111610e9c5760405180602001604052806000815250610ec7565b80610ea68461101e565b604051602001610eb792919061163a565b6040516020818303038152906040525b9392505050565b6060816000015182602001518360400151846060015185608001518660a00151604051602001610cc49695949392919061171f565b6000610f17846001600160a01b0316611139565b1561101357836001600160a01b031663150b7a02610f336109a7565b8786866040518563ffffffff1660e01b8152600401610f559493929190611794565b602060405180830381600087803b158015610f6f57600080fd5b505af1925050508015610f9f575060408051601f3d908101601f19168201909252610f9c91810190611593565b60015b610ff9573d808015610fcd576040519150601f19603f3d011682016040523d82523d6000602084013e610fd2565b606091505b508051610ff15760405162461bcd60e51b81526004016103b4906117ef565b805181602001fd5b6001600160e01b031916630a85bd0160e11b1490506108ca565b506001949350505050565b60608161104357506040805180820190915260018152600360fc1b60208201526102e7565b8160005b811561106d578061105781611e66565b91506110669050600a83611dd4565b9150611047565b60008167ffffffffffffffff81111561109657634e487b7160e01b600052604160045260246000fd5b6040519080825280601f01601f1916602001820160405280156110c0576020820181803683370190505b5090505b84156108ca576110d5600183611de8565b91506110e2600a86611e81565b6110ed906030611dbc565b60f81b81838151811061111057634e487b7160e01b600052603260045260246000fd5b60200101906001600160f81b031916908160001a905350611132600a86611dd4565b94506110c4565b3b151590565b6040518060800160405280600081526020016111596111f7565b8152602001611166611218565b8152600060209091015290565b82805461117f90611e2b565b90600052602060002090601f0160209004810192826111a157600085556111e7565b82601f106111ba57805160ff19168380011785556111e7565b828001600101855582156111e7579182015b828111156111e75782518255916020019190600101906111cc565b506111f392915061124e565b5090565b60405180606001604052806000815260200160008152602001600081525090565b6040518060c001604052806000815260200160008152602001600081526020016000815260200160008152602001600081525090565b5b808211156111f3576000815560010161124f565b80356001600160a01b03811681146102e757600080fd5b803580151581146102e757600080fd5b600060c0828403121561129b578081fd5b60405160c0810181811067ffffffffffffffff821117156112be576112be611ec1565b8060405250809150823581526020830135602082015260408301356040820152606083013560608201526080830135608082015260a083013560a08201525092915050565b600060208284031215611314578081fd5b610ec782611263565b6000806040838503121561132f578081fd5b61133883611263565b915061134660208401611263565b90509250929050565b600080600060608486031215611363578081fd5b61136c84611263565b925061137a60208501611263565b9150604084013590509250925092565b6000806000806080858703121561139f578081fd5b6113a885611263565b935060206113b7818701611263565b935060408601359250606086013567ffffffffffffffff808211156113da578384fd5b818801915088601f8301126113ed578384fd5b8135818111156113ff576113ff611ec1565b611411601f8201601f19168501611d86565b91508082528984828501011115611426578485fd5b8084840185840137810190920192909252939692955090935050565b60008060408385031215611454578182fd5b61145d83611263565b91506113466020840161127a565b60008082840361018081121561147f578283fd5b61148884611263565b925061016080601f198301121561149d578283fd5b604080516080810167ffffffffffffffff82821081831117156114c2576114c2611ec1565b818452602089013583526060603f19870112156114dd578687fd5b8351955060608601915085821081831117156114fb576114fb611ec1565b50808352508187013584526060870135602085015260808701358285015283602082015261152c8860a0890161128a565b8282015261153b83880161127a565b6060820152809450505050509250929050565b60008060408385031215611560578182fd5b61156983611263565b946020939093013593505050565b600060208284031215611588578081fd5b8135610ec781611ed7565b6000602082840312156115a4578081fd5b8151610ec781611ed7565b6000602082840312156115c0578081fd5b5035919050565b15159052565b600081518084526115e5816020860160208601611dff565b601f01601f19169290920160200192915050565b6000815161160b818560208601611dff565b9290920192915050565b601160f91b815260010190565b6b179fb334b632b730b6b29e9160a11b8152600c0190565b6000835161164c818460208801611dff565b835190830190611660818360208801611dff565b01949350505050565b825460009081906002810460018083168061168557607f831692505b60208084108214156116a557634e487b7160e01b87526022600452602487fd5b8180156116b957600181146116ca576116f6565b60ff198616895284890196506116f6565b6116d38b611db0565b885b868110156116ee5781548b8201529085019083016116d5565b505084890196505b50505050505061171661171161170b83611622565b866115f9565b611615565b95945050505050565b958652602d60f81b602087018190526021870195909552605f60f81b60418701819052604287019490945260628601859052606386019290925260838501839052608485015260a484019290925260a583019190915260c582015260c60190565b6001600160a01b0391909116815260200190565b6001600160a01b03858116825284166020820152604081018390526080606082018190526000906117c7908301846115cd565b9695505050505050565b901515815260200190565b600060208252610ec760208301846115cd565b60208082526032908201527f4552433732313a207472616e7366657220746f206e6f6e20455243373231526560408201527131b2b4bb32b91034b6b83632b6b2b73a32b960711b606082015260800190565b60208082526026908201527f4f776e61626c653a206e6577206f776e657220697320746865207a65726f206160408201526564647265737360d01b606082015260800190565b6020808252601c908201527f4552433732313a20746f6b656e20616c7265616479206d696e74656400000000604082015260600190565b60208082526024908201527f4552433732313a207472616e7366657220746f20746865207a65726f206164646040820152637265737360e01b606082015260800190565b60208082526019908201527f4552433732313a20617070726f766520746f2063616c6c657200000000000000604082015260600190565b6020808252602c908201527f4552433732313a206f70657261746f7220717565727920666f72206e6f6e657860408201526b34b9ba32b73a103a37b5b2b760a11b606082015260800190565b60208082526038908201527f4552433732313a20617070726f76652063616c6c6572206973206e6f74206f7760408201527f6e6572206e6f7220617070726f76656420666f7220616c6c0000000000000000606082015260800190565b6020808252602a908201527f4552433732313a2062616c616e636520717565727920666f7220746865207a65604082015269726f206164647265737360b01b606082015260800190565b60208082526029908201527f4552433732313a206f776e657220717565727920666f72206e6f6e657869737460408201526832b73a103a37b5b2b760b91b606082015260800190565b6020808252602e908201527f45524337323155524953746f726167653a2055524920736574206f66206e6f6e60408201526d32bc34b9ba32b73a103a37b5b2b760911b606082015260800190565b6020808252818101527f4552433732313a206d696e7420746f20746865207a65726f2061646472657373604082015260600190565b60208082526031908201527f45524337323155524953746f726167653a2055524920717565727920666f72206040820152703737b732bc34b9ba32b73a103a37b5b2b760791b606082015260800190565b6020808252602c908201527f4552433732313a20617070726f76656420717565727920666f72206e6f6e657860408201526b34b9ba32b73a103a37b5b2b760a11b606082015260800190565b6020808252818101527f4f776e61626c653a2063616c6c6572206973206e6f7420746865206f776e6572604082015260600190565b60208082526029908201527f4552433732313a207472616e73666572206f6620746f6b656e2074686174206960408201526839903737ba1037bbb760b91b606082015260800190565b6020808252602f908201527f4552433732314d657461646174613a2055524920717565727920666f72206e6f60408201526e3732bc34b9ba32b73a103a37b5b2b760891b606082015260800190565b60208082526021908201527f4552433732313a20617070726f76616c20746f2063757272656e74206f776e656040820152603960f91b606082015260800190565b60208082526031908201527f4552433732313a207472616e736665722063616c6c6572206973206e6f74206f6040820152701ddb995c881b9bdc88185c1c1c9bdd9959607a1b606082015260800190565b60006101608201905082518252602083015180516020840152602081015160408401526040810151606084015250604083015180516080840152602081015160a0840152604081015160c0840152606081015160e0840152608081015161010084015260a0810151610120840152506060830151611d766101408401826115c7565b5092915050565b90815260200190565b60405181810167ffffffffffffffff81118282101715611da857611da8611ec1565b604052919050565b60009081526020902090565b60008219821115611dcf57611dcf611e95565b500190565b600082611de357611de3611eab565b500490565b600082821015611dfa57611dfa611e95565b500390565b60005b83811015611e1a578181015183820152602001611e02565b838111156107ab5750506000910152565b600281046001821680611e3f57607f821691505b60208210811415611e6057634e487b7160e01b600052602260045260246000fd5b50919050565b6000600019821415611e7a57611e7a611e95565b5060010190565b600082611e9057611e90611eab565b500690565b634e487b7160e01b600052601160045260246000fd5b634e487b7160e01b600052601260045260246000fd5b634e487b7160e01b600052604160045260246000fd5b6001600160e01b03198116811461096e57600080fdfea264697066735822122073a347912716d1e938d31f066f843a60d1a2dfc1e419fbea54a458079fbb04d664736f6c63430008000033",
  "immutableReferences": {},
  "source": "// SPDX-License-Identifier: MIT\n\npragma solidity ^0.8.0;\n\nimport \"@openzeppelin/contracts/token/ERC721/extensions/ERC721URIStorage.sol\";\nimport \"@openzeppelin/contracts/access/Ownable.sol\";\nimport \"@openzeppelin/contracts/utils/Counters.sol\";\n\nlibrary SpaceShips {\n    struct ShipStat {\n        uint256 atk;\n        uint256 def;\n        uint256 speed;\n    }\n    struct ShipParts {\n        uint256 body;\n        uint256 bodySkin;\n        uint256 reactor;\n        uint256 reactorSkin;\n        uint256 weapon;\n        uint256 weaponSkin;\n    }\n    struct Ship {\n        uint256 id;\n        ShipStat stats;\n        ShipParts parts;\n        bool isDestroyed;\n    }\n}\n\ncontract SpaceShipEventContract is ERC721URIStorage, Ownable {\n    using Counters for Counters.Counter;\n    using Strings for uint256;\n    Counters.Counter _tokenIds;\n    string private _CID;\n    mapping(uint256 => SpaceShips.Ship) private _AliveSpaceShipDatas;\n    mapping(uint256 => SpaceShips.Ship) private _spaceShipDatas;\n\n    constructor(string memory CID) ERC721(\"Space Ship Event Contract\", \"SPE\") {\n        bytes memory tempCID = bytes(CID);\n        require(tempCID.length > 0, \"Space Ship Event: no CID provided\");\n        _CID = CID;\n    }\n\n    function getCID() public view virtual returns (string memory) {\n        return _CID;\n    }\n\n    function getShip(uint256 tokenId) public view returns (SpaceShips.Ship memory) {\n        return _spaceShipDatas[tokenId];\n    }\n\n    function _partsToStr(SpaceShips.ShipParts memory parts) internal pure returns (string memory) {\n      return string(abi.encodePacked(parts.body, \"-\", parts.bodySkin, \"_\",parts.reactor, \"-\", parts.reactorSkin, \"_\",parts.weapon, \"-\", parts.weaponSkin, \"_\"));\n    }\n\n    function _createTokenURI(SpaceShips.ShipParts memory parts) internal view returns(string memory) {\n        return string(abi.encodePacked(_CID, '/?filename=\"', _partsToStr(parts), '\"'));\n    }\n\n    function _createSpaceShipForToken(uint256 tokenId, SpaceShips.Ship memory spaceShip) internal {\n         spaceShip.isDestroyed = false;\n         spaceShip.id = tokenId;\n        _spaceShipDatas[tokenId] = spaceShip;\n    }\n\n    function _destroySpaceShip(uint256 tokenId) internal {\n        _spaceShipDatas[tokenId].isDestroyed = true;\n        //TODO: change ifps for destroyed ship , sorry boys !\n    }\n\n    function mintSpaceShip(address recipient, SpaceShips.Ship memory spaceShip) public returns(uint256) {\n        uint256 newId = _tokenIds.current();\n        _mint(recipient, newId);\n        string memory uri = _createTokenURI(spaceShip.parts);\n        _setTokenURI(newId, uri);\n        _createSpaceShipForToken(newId, spaceShip);\n        _tokenIds.increment();\n        return newId;\n    }\n}\n",
  "sourcePath": "G:\\NFT\\NFT-SpaceShip-Event\\contracts\\SpaceShipEventContract.sol",
  "compiler": {
    "name": "solc",
    "version": "0.8.0+commit.c7dfd78e.Emscripten.clang"
  },
  "schemaVersion": "3.4.3",
  "updatedAt": "2021-09-22T21:47:28.738Z",
  "networkType": "ethereum",
  "devdoc": {
    "kind": "dev",
    "methods": {
      "approve(address,uint256)": {
        "details": "See {IERC721-approve}."
      },
      "balanceOf(address)": {
        "details": "See {IERC721-balanceOf}."
      },
      "getApproved(uint256)": {
        "details": "See {IERC721-getApproved}."
      },
      "isApprovedForAll(address,address)": {
        "details": "See {IERC721-isApprovedForAll}."
      },
      "name()": {
        "details": "See {IERC721Metadata-name}."
      },
      "owner()": {
        "details": "Returns the address of the current owner."
      },
      "ownerOf(uint256)": {
        "details": "See {IERC721-ownerOf}."
      },
      "renounceOwnership()": {
        "details": "Leaves the contract without owner. It will not be possible to call `onlyOwner` functions anymore. Can only be called by the current owner. NOTE: Renouncing ownership will leave the contract without an owner, thereby removing any functionality that is only available to the owner."
      },
      "safeTransferFrom(address,address,uint256)": {
        "details": "See {IERC721-safeTransferFrom}."
      },
      "safeTransferFrom(address,address,uint256,bytes)": {
        "details": "See {IERC721-safeTransferFrom}."
      },
      "setApprovalForAll(address,bool)": {
        "details": "See {IERC721-setApprovalForAll}."
      },
      "supportsInterface(bytes4)": {
        "details": "See {IERC165-supportsInterface}."
      },
      "symbol()": {
        "details": "See {IERC721Metadata-symbol}."
      },
      "tokenURI(uint256)": {
        "details": "See {IERC721Metadata-tokenURI}."
      },
      "transferFrom(address,address,uint256)": {
        "details": "See {IERC721-transferFrom}."
      },
      "transferOwnership(address)": {
        "details": "Transfers ownership of the contract to a new account (`newOwner`). Can only be called by the current owner."
      }
    },
    "version": 1
  },
  "userdoc": {
    "kind": "user",
    "methods": {},
    "version": 1
  }
}