{
  "contractName": "SpaceShipEventContract",
  "abi": [
    {
      "inputs": [
        {
          "internalType": "string",
          "name": "CID",
          "type": "string"
        }
      ],
      "stateMutability": "nonpayable",
      "type": "constructor"
    },
    {
      "anonymous": false,
      "inputs": [
        {
          "indexed": true,
          "internalType": "address",
          "name": "owner",
          "type": "address"
        },
        {
          "indexed": true,
          "internalType": "address",
          "name": "approved",
          "type": "address"
        },
        {
          "indexed": true,
          "internalType": "uint256",
          "name": "tokenId",
          "type": "uint256"
        }
      ],
      "name": "Approval",
      "type": "event"
    },
    {
      "anonymous": false,
      "inputs": [
        {
          "indexed": true,
          "internalType": "address",
          "name": "owner",
          "type": "address"
        },
        {
          "indexed": true,
          "internalType": "address",
          "name": "operator",
          "type": "address"
        },
        {
          "indexed": false,
          "internalType": "bool",
          "name": "approved",
          "type": "bool"
        }
      ],
      "name": "ApprovalForAll",
      "type": "event"
    },
    {
      "anonymous": false,
      "inputs": [
        {
          "indexed": true,
          "internalType": "address",
          "name": "previousOwner",
          "type": "address"
        },
        {
          "indexed": true,
          "internalType": "address",
          "name": "newOwner",
          "type": "address"
        }
      ],
      "name": "OwnershipTransferred",
      "type": "event"
    },
    {
      "anonymous": false,
      "inputs": [
        {
          "indexed": true,
          "internalType": "address",
          "name": "from",
          "type": "address"
        },
        {
          "indexed": true,
          "internalType": "address",
          "name": "to",
          "type": "address"
        },
        {
          "indexed": true,
          "internalType": "uint256",
          "name": "tokenId",
          "type": "uint256"
        }
      ],
      "name": "Transfer",
      "type": "event"
    },
    {
      "inputs": [
        {
          "internalType": "address",
          "name": "to",
          "type": "address"
        },
        {
          "internalType": "uint256",
          "name": "tokenId",
          "type": "uint256"
        }
      ],
      "name": "approve",
      "outputs": [],
      "stateMutability": "nonpayable",
      "type": "function"
    },
    {
      "inputs": [
        {
          "internalType": "address",
          "name": "owner",
          "type": "address"
        }
      ],
      "name": "balanceOf",
      "outputs": [
        {
          "internalType": "uint256",
          "name": "",
          "type": "uint256"
        }
      ],
      "stateMutability": "view",
      "type": "function",
      "constant": true
    },
    {
      "inputs": [
        {
          "internalType": "uint256",
          "name": "tokenId",
          "type": "uint256"
        }
      ],
      "name": "getApproved",
      "outputs": [
        {
          "internalType": "address",
          "name": "",
          "type": "address"
        }
      ],
      "stateMutability": "view",
      "type": "function",
      "constant": true
    },
    {
      "inputs": [
        {
          "internalType": "address",
          "name": "owner",
          "type": "address"
        },
        {
          "internalType": "address",
          "name": "operator",
          "type": "address"
        }
      ],
      "name": "isApprovedForAll",
      "outputs": [
        {
          "internalType": "bool",
          "name": "",
          "type": "bool"
        }
      ],
      "stateMutability": "view",
      "type": "function",
      "constant": true
    },
    {
      "inputs": [],
      "name": "name",
      "outputs": [
        {
          "internalType": "string",
          "name": "",
          "type": "string"
        }
      ],
      "stateMutability": "view",
      "type": "function",
      "constant": true
    },
    {
      "inputs": [],
      "name": "owner",
      "outputs": [
        {
          "internalType": "address",
          "name": "",
          "type": "address"
        }
      ],
      "stateMutability": "view",
      "type": "function",
      "constant": true
    },
    {
      "inputs": [
        {
          "internalType": "uint256",
          "name": "tokenId",
          "type": "uint256"
        }
      ],
      "name": "ownerOf",
      "outputs": [
        {
          "internalType": "address",
          "name": "",
          "type": "address"
        }
      ],
      "stateMutability": "view",
      "type": "function",
      "constant": true
    },
    {
      "inputs": [],
      "name": "renounceOwnership",
      "outputs": [],
      "stateMutability": "nonpayable",
      "type": "function"
    },
    {
      "inputs": [
        {
          "internalType": "address",
          "name": "from",
          "type": "address"
        },
        {
          "internalType": "address",
          "name": "to",
          "type": "address"
        },
        {
          "internalType": "uint256",
          "name": "tokenId",
          "type": "uint256"
        }
      ],
      "name": "safeTransferFrom",
      "outputs": [],
      "stateMutability": "nonpayable",
      "type": "function"
    },
    {
      "inputs": [
        {
          "internalType": "address",
          "name": "from",
          "type": "address"
        },
        {
          "internalType": "address",
          "name": "to",
          "type": "address"
        },
        {
          "internalType": "uint256",
          "name": "tokenId",
          "type": "uint256"
        },
        {
          "internalType": "bytes",
          "name": "_data",
          "type": "bytes"
        }
      ],
      "name": "safeTransferFrom",
      "outputs": [],
      "stateMutability": "nonpayable",
      "type": "function"
    },
    {
      "inputs": [
        {
          "internalType": "address",
          "name": "operator",
          "type": "address"
        },
        {
          "internalType": "bool",
          "name": "approved",
          "type": "bool"
        }
      ],
      "name": "setApprovalForAll",
      "outputs": [],
      "stateMutability": "nonpayable",
      "type": "function"
    },
    {
      "inputs": [
        {
          "internalType": "bytes4",
          "name": "interfaceId",
          "type": "bytes4"
        }
      ],
      "name": "supportsInterface",
      "outputs": [
        {
          "internalType": "bool",
          "name": "",
          "type": "bool"
        }
      ],
      "stateMutability": "view",
      "type": "function",
      "constant": true
    },
    {
      "inputs": [],
      "name": "symbol",
      "outputs": [
        {
          "internalType": "string",
          "name": "",
          "type": "string"
        }
      ],
      "stateMutability": "view",
      "type": "function",
      "constant": true
    },
    {
      "inputs": [
        {
          "internalType": "uint256",
          "name": "tokenId",
          "type": "uint256"
        }
      ],
      "name": "tokenURI",
      "outputs": [
        {
          "internalType": "string",
          "name": "",
          "type": "string"
        }
      ],
      "stateMutability": "view",
      "type": "function",
      "constant": true
    },
    {
      "inputs": [
        {
          "internalType": "address",
          "name": "from",
          "type": "address"
        },
        {
          "internalType": "address",
          "name": "to",
          "type": "address"
        },
        {
          "internalType": "uint256",
          "name": "tokenId",
          "type": "uint256"
        }
      ],
      "name": "transferFrom",
      "outputs": [],
      "stateMutability": "nonpayable",
      "type": "function"
    },
    {
      "inputs": [
        {
          "internalType": "address",
          "name": "newOwner",
          "type": "address"
        }
      ],
      "name": "transferOwnership",
      "outputs": [],
      "stateMutability": "nonpayable",
      "type": "function"
    },
    {
      "inputs": [],
      "name": "getCID",
      "outputs": [
        {
          "internalType": "string",
          "name": "",
          "type": "string"
        }
      ],
      "stateMutability": "view",
      "type": "function",
      "constant": true
    },
    {
      "inputs": [
        {
          "internalType": "address",
          "name": "recipient",
          "type": "address"
        },
        {
          "components": [
            {
              "internalType": "uint256",
              "name": "id",
              "type": "uint256"
            },
            {
              "components": [
                {
                  "internalType": "uint256",
                  "name": "atk",
                  "type": "uint256"
                },
                {
                  "internalType": "uint256",
                  "name": "def",
                  "type": "uint256"
                },
                {
                  "internalType": "uint256",
                  "name": "speed",
                  "type": "uint256"
                }
              ],
              "internalType": "struct SpaceShipEventContract.SpaceShipStat",
              "name": "stats",
              "type": "tuple"
            },
            {
              "components": [
                {
                  "internalType": "uint256",
                  "name": "body",
                  "type": "uint256"
                },
                {
                  "internalType": "uint256",
                  "name": "bodySkin",
                  "type": "uint256"
                },
                {
                  "internalType": "uint256",
                  "name": "reactor",
                  "type": "uint256"
                },
                {
                  "internalType": "uint256",
                  "name": "reactorSkin",
                  "type": "uint256"
                },
                {
                  "internalType": "uint256",
                  "name": "weapon",
                  "type": "uint256"
                },
                {
                  "internalType": "uint256",
                  "name": "weaponSkin",
                  "type": "uint256"
                }
              ],
              "internalType": "struct SpaceShipEventContract.SpaceShipParts",
              "name": "parts",
              "type": "tuple"
            },
            {
              "internalType": "bool",
              "name": "isDestroyed",
              "type": "bool"
            }
          ],
          "internalType": "struct SpaceShipEventContract.SpaceShip",
          "name": "spaceShip",
          "type": "tuple"
        }
      ],
      "name": "mintSpaceShip",
      "outputs": [
        {
          "internalType": "uint256",
          "name": "",
          "type": "uint256"
        }
      ],
      "stateMutability": "nonpayable",
      "type": "function"
    }
  ],
  "bytecode": "0x60806040523480156200001157600080fd5b50604051620020f4380380620020f483398101604081905262000034916200020d565b604080518082018252601981527f53706163652053686970204576656e7420436f6e74726163740000000000000060208083019182528351808501909452600384526253504560e81b908401528151919291620000949160009162000167565b508051620000aa90600190602084019062000167565b505050620000c7620000c16200011160201b60201c565b62000115565b80518190620000f35760405162461bcd60e51b8152600401620000ea90620002dc565b60405180910390fd5b81516200010890600990602085019062000167565b50505062000370565b3390565b600780546001600160a01b038381166001600160a01b0319831681179093556040519116919082907f8be0079c531659141344cd1fd0a4f28419497f9722a3daafe3b4186f6b6457e090600090a35050565b82805462000175906200031d565b90600052602060002090601f016020900481019282620001995760008555620001e4565b82601f10620001b457805160ff1916838001178555620001e4565b82800160010185558215620001e4579182015b82811115620001e4578251825591602001919060010190620001c7565b50620001f2929150620001f6565b5090565b5b80821115620001f25760008155600101620001f7565b6000602080838503121562000220578182fd5b82516001600160401b038082111562000237578384fd5b818501915085601f8301126200024b578384fd5b8151818111156200026057620002606200035a565b604051601f8201601f19168101850183811182821017156200028657620002866200035a565b60405281815283820185018810156200029d578586fd5b8592505b81831015620002c05783830185015181840186015291840191620002a1565b81831115620002d157858583830101525b979650505050505050565b60208082526021908201527f53706163652053686970204576656e743a206e6f204349442070726f766964656040820152601960fa1b606082015260800190565b6002810460018216806200033257607f821691505b602082108114156200035457634e487b7160e01b600052602260045260246000fd5b50919050565b634e487b7160e01b600052604160045260246000fd5b611d7480620003806000396000f3fe608060405234801561001057600080fd5b50600436106101165760003560e01c806370a08231116100a2578063a22cb46511610071578063a22cb4651461021a578063b88d4fde1461022d578063c87b56dd14610240578063e985e9c514610253578063f2fde38b1461026657610116565b806370a08231146101ef578063715018a6146102025780638da5cb5b1461020a57806395d89b411461021257610116565b8063095ea7b3116100e9578063095ea7b31461018157806323b872dd1461019657806342842e0e146101a957806356a11f63146101bc5780636352211e146101dc57610116565b806301ffc9a71461011b57806302790e341461014457806306fdde0314610159578063081812fc14610161575b600080fd5b61012e610129366004611457565b610279565b60405161013b91906116ab565b60405180910390f35b61014c6102c1565b60405161013b91906116b6565b61014c610353565b61017461016f36600461148f565b610362565b60405161013b919061165a565b61019461018f36600461142e565b6103ae565b005b6101946101a436600461122f565b610446565b6101946101b736600461122f565b61047e565b6101cf6101ca36600461134b565b610499565b60405161013b9190611bce565b6101746101ea36600461148f565b610533565b6101cf6101fd3660046111e3565b610568565b6101946105ac565b6101746105f7565b61014c610606565b610194610228366004611322565b610615565b61019461023b36600461126a565b6106e3565b61014c61024e36600461148f565b610722565b61012e6102613660046111fd565b610843565b6101946102743660046111e3565b610871565b60006001600160e01b031982166380ac58cd60e01b14806102aa57506001600160e01b03198216635b5e139f60e01b145b806102b957506102b9826108e2565b90505b919050565b6060600980546102d090611c7c565b80601f01602080910402602001604051908101604052809291908181526020018280546102fc90611c7c565b80156103495780601f1061031e57610100808354040283529160200191610349565b820191906000526020600020905b81548152906001019060200180831161032c57829003601f168201915b5050505050905090565b6060600080546102d090611c7c565b600061036d826108fb565b6103925760405162461bcd60e51b815260040161038990611a23565b60405180910390fd5b506000908152600460205260409020546001600160a01b031690565b60006103b982610533565b9050806001600160a01b0316836001600160a01b031614156103ed5760405162461bcd60e51b815260040161038990611b3c565b806001600160a01b03166103ff610918565b6001600160a01b0316148061041b575061041b81610261610918565b6104375760405162461bcd60e51b81526004016103899061185f565b610441838361091c565b505050565b610457610451610918565b8261098a565b6104735760405162461bcd60e51b815260040161038990611b7d565b610441838383610a07565b610441838383604051806020016040528060008152506106e3565b60006104a3610918565b6001600160a01b03166104b46105f7565b6001600160a01b0316146104da5760405162461bcd60e51b815260040161038990611a6f565b60006104e66008610b34565b60006060850181905260408501519192509061050190610b38565b905061050d8282610b6c565b6105178285610bb0565b6105218583610c37565b61052b6008610d16565b509392505050565b6000818152600260205260408120546001600160a01b0316806102b95760405162461bcd60e51b815260040161038990611906565b60006001600160a01b0382166105905760405162461bcd60e51b8152600401610389906118bc565b506001600160a01b031660009081526003602052604090205490565b6105b4610918565b6001600160a01b03166105c56105f7565b6001600160a01b0316146105eb5760405162461bcd60e51b815260040161038990611a6f565b6105f56000610d1f565b565b6007546001600160a01b031690565b6060600180546102d090611c7c565b61061d610918565b6001600160a01b0316826001600160a01b0316141561064e5760405162461bcd60e51b8152600401610389906117dc565b806005600061065b610918565b6001600160a01b03908116825260208083019390935260409182016000908120918716808252919093529120805460ff19169215159290921790915561069f610918565b6001600160a01b03167f17307eab39ab6107e8899845ad3d59bd9653f200f220920489ca2b5937696c31836040516106d791906116ab565b60405180910390a35050565b6106f46106ee610918565b8361098a565b6107105760405162461bcd60e51b815260040161038990611b7d565b61071c84848484610d71565b50505050565b606061072d826108fb565b6107495760405162461bcd60e51b8152600401610389906119d2565b6000828152600660205260408120805461076290611c7c565b80601f016020809104026020016040519081016040528092919081815260200182805461078e90611c7c565b80156107db5780601f106107b0576101008083540402835291602001916107db565b820191906000526020600020905b8154815290600101906020018083116107be57829003601f168201915b5050505050905060006107ec610da4565b9050805160001415610800575090506102bc565b81511561083257808260405160200161081a929190611514565b604051602081830303815290604052925050506102bc565b61083b84610db6565b949350505050565b6001600160a01b03918216600090815260056020908152604080832093909416825291909152205460ff1690565b610879610918565b6001600160a01b031661088a6105f7565b6001600160a01b0316146108b05760405162461bcd60e51b815260040161038990611a6f565b6001600160a01b0381166108d65760405162461bcd60e51b81526004016103899061171b565b6108df81610d1f565b50565b6001600160e01b031981166301ffc9a760e01b14919050565b6000908152600260205260409020546001600160a01b0316151590565b3390565b600081815260046020526040902080546001600160a01b0319166001600160a01b038416908117909155819061095182610533565b6001600160a01b03167f8c5be1e5ebec7d5bd14f71427d1e84f3dd0314c0f7b2291e5b200ac8c7c3b92560405160405180910390a45050565b6000610995826108fb565b6109b15760405162461bcd60e51b815260040161038990611813565b60006109bc83610533565b9050806001600160a01b0316846001600160a01b031614806109f75750836001600160a01b03166109ec84610362565b6001600160a01b0316145b8061083b575061083b8185610843565b826001600160a01b0316610a1a82610533565b6001600160a01b031614610a405760405162461bcd60e51b815260040161038990611aa4565b6001600160a01b038216610a665760405162461bcd60e51b815260040161038990611798565b610a71838383610441565b610a7c60008261091c565b6001600160a01b0383166000908152600360205260408120805460019290610aa5908490611c39565b90915550506001600160a01b0382166000908152600360205260408120805460019290610ad3908490611c0d565b909155505060008181526002602052604080822080546001600160a01b0319166001600160a01b0386811691821790925591518493918716917fddf252ad1be2c89b69c2b068fc378daa952ba7f163c4a11628f55a4df523b3ef91a4505050565b5490565b60606009610b4583610e39565b604051602001610b56929190611543565b6040516020818303038152906040529050919050565b610b75826108fb565b610b915760405162461bcd60e51b81526004016103899061194f565b60008281526006602090815260409091208251610441928401906110aa565b6000918252600b60209081526040928390208251815582820151805160018301558083015160028301558401516003820155828401518051600483015591820151600582015592810151600684015560608082015160078501556080820151600885015560a09091015160098401550151600a909101805460ff1916911515919091179055565b6001600160a01b038216610c5d5760405162461bcd60e51b81526004016103899061199d565b610c66816108fb565b15610c835760405162461bcd60e51b815260040161038990611761565b610c8f60008383610441565b6001600160a01b0382166000908152600360205260408120805460019290610cb8908490611c0d565b909155505060008181526002602052604080822080546001600160a01b0319166001600160a01b03861690811790915590518392907fddf252ad1be2c89b69c2b068fc378daa952ba7f163c4a11628f55a4df523b3ef908290a45050565b80546001019055565b600780546001600160a01b038381166001600160a01b0319831681179093556040519116919082907f8be0079c531659141344cd1fd0a4f28419497f9722a3daafe3b4186f6b6457e090600090a35050565b610d7c848484610a07565b610d8884848484610e6e565b61071c5760405162461bcd60e51b8152600401610389906116c9565b60408051602081019091526000815290565b6060610dc1826108fb565b610ddd5760405162461bcd60e51b815260040161038990611aed565b6000610de7610da4565b90506000815111610e075760405180602001604052806000815250610e32565b80610e1184610f89565b604051602001610e22929190611514565b6040516020818303038152906040525b9392505050565b6060816000015182602001518360400151846060015185608001518660a00151604051602001610b56969594939291906115f9565b6000610e82846001600160a01b03166110a4565b15610f7e57836001600160a01b031663150b7a02610e9e610918565b8786866040518563ffffffff1660e01b8152600401610ec0949392919061166e565b602060405180830381600087803b158015610eda57600080fd5b505af1925050508015610f0a575060408051601f3d908101601f19168201909252610f0791810190611473565b60015b610f64573d808015610f38576040519150601f19603f3d011682016040523d82523d6000602084013e610f3d565b606091505b508051610f5c5760405162461bcd60e51b8152600401610389906116c9565b805181602001fd5b6001600160e01b031916630a85bd0160e11b14905061083b565b506001949350505050565b606081610fae57506040805180820190915260018152600360fc1b60208201526102bc565b8160005b8115610fd85780610fc281611cb7565b9150610fd19050600a83611c25565b9150610fb2565b60008167ffffffffffffffff81111561100157634e487b7160e01b600052604160045260246000fd5b6040519080825280601f01601f19166020018201604052801561102b576020820181803683370190505b5090505b841561083b57611040600183611c39565b915061104d600a86611cd2565b611058906030611c0d565b60f81b81838151811061107b57634e487b7160e01b600052603260045260246000fd5b60200101906001600160f81b031916908160001a90535061109d600a86611c25565b945061102f565b3b151590565b8280546110b690611c7c565b90600052602060002090601f0160209004810192826110d8576000855561111e565b82601f106110f157805160ff191683800117855561111e565b8280016001018555821561111e579182015b8281111561111e578251825591602001919060010190611103565b5061112a92915061112e565b5090565b5b8082111561112a576000815560010161112f565b80356001600160a01b03811681146102bc57600080fd5b803580151581146102bc57600080fd5b600060c0828403121561117b578081fd5b60405160c0810181811067ffffffffffffffff8211171561119e5761119e611d12565b8060405250809150823581526020830135602082015260408301356040820152606083013560608201526080830135608082015260a083013560a08201525092915050565b6000602082840312156111f4578081fd5b610e3282611143565b6000806040838503121561120f578081fd5b61121883611143565b915061122660208401611143565b90509250929050565b600080600060608486031215611243578081fd5b61124c84611143565b925061125a60208501611143565b9150604084013590509250925092565b6000806000806080858703121561127f578081fd5b61128885611143565b93506020611297818701611143565b935060408601359250606086013567ffffffffffffffff808211156112ba578384fd5b818801915088601f8301126112cd578384fd5b8135818111156112df576112df611d12565b6112f1601f8201601f19168501611bd7565b91508082528984828501011115611306578485fd5b8084840185840137810190920192909252939692955090935050565b60008060408385031215611334578182fd5b61133d83611143565b91506112266020840161115a565b60008082840361018081121561135f578283fd5b61136884611143565b925061016080601f198301121561137d578283fd5b604080516080810167ffffffffffffffff82821081831117156113a2576113a2611d12565b818452602089013583526060603f19870112156113bd578687fd5b8351955060608601915085821081831117156113db576113db611d12565b50808352508187013584526060870135602085015260808701358285015283602082015261140c8860a0890161116a565b8282015261141b83880161115a565b6060820152809450505050509250929050565b60008060408385031215611440578182fd5b61144983611143565b946020939093013593505050565b600060208284031215611468578081fd5b8135610e3281611d28565b600060208284031215611484578081fd5b8151610e3281611d28565b6000602082840312156114a0578081fd5b5035919050565b600081518084526114bf816020860160208601611c50565b601f01601f19169290920160200192915050565b600081516114e5818560208601611c50565b9290920192915050565b601160f91b815260010190565b6b179fb334b632b730b6b29e9160a11b8152600c0190565b60008351611526818460208801611c50565b83519083019061153a818360208801611c50565b01949350505050565b825460009081906002810460018083168061155f57607f831692505b602080841082141561157f57634e487b7160e01b87526022600452602487fd5b81801561159357600181146115a4576115d0565b60ff198616895284890196506115d0565b6115ad8b611c01565b885b868110156115c85781548b8201529085019083016115af565b505084890196505b5050505050506115f06115eb6115e5836114fc565b866114d3565b6114ef565b95945050505050565b958652602d60f81b602087018190526021870195909552605f60f81b60418701819052604287019490945260628601859052606386019290925260838501839052608485015260a484019290925260a583019190915260c582015260c60190565b6001600160a01b0391909116815260200190565b6001600160a01b03858116825284166020820152604081018390526080606082018190526000906116a1908301846114a7565b9695505050505050565b901515815260200190565b600060208252610e3260208301846114a7565b60208082526032908201527f4552433732313a207472616e7366657220746f206e6f6e20455243373231526560408201527131b2b4bb32b91034b6b83632b6b2b73a32b960711b606082015260800190565b60208082526026908201527f4f776e61626c653a206e6577206f776e657220697320746865207a65726f206160408201526564647265737360d01b606082015260800190565b6020808252601c908201527f4552433732313a20746f6b656e20616c7265616479206d696e74656400000000604082015260600190565b60208082526024908201527f4552433732313a207472616e7366657220746f20746865207a65726f206164646040820152637265737360e01b606082015260800190565b60208082526019908201527f4552433732313a20617070726f766520746f2063616c6c657200000000000000604082015260600190565b6020808252602c908201527f4552433732313a206f70657261746f7220717565727920666f72206e6f6e657860408201526b34b9ba32b73a103a37b5b2b760a11b606082015260800190565b60208082526038908201527f4552433732313a20617070726f76652063616c6c6572206973206e6f74206f7760408201527f6e6572206e6f7220617070726f76656420666f7220616c6c0000000000000000606082015260800190565b6020808252602a908201527f4552433732313a2062616c616e636520717565727920666f7220746865207a65604082015269726f206164647265737360b01b606082015260800190565b60208082526029908201527f4552433732313a206f776e657220717565727920666f72206e6f6e657869737460408201526832b73a103a37b5b2b760b91b606082015260800190565b6020808252602e908201527f45524337323155524953746f726167653a2055524920736574206f66206e6f6e60408201526d32bc34b9ba32b73a103a37b5b2b760911b606082015260800190565b6020808252818101527f4552433732313a206d696e7420746f20746865207a65726f2061646472657373604082015260600190565b60208082526031908201527f45524337323155524953746f726167653a2055524920717565727920666f72206040820152703737b732bc34b9ba32b73a103a37b5b2b760791b606082015260800190565b6020808252602c908201527f4552433732313a20617070726f76656420717565727920666f72206e6f6e657860408201526b34b9ba32b73a103a37b5b2b760a11b606082015260800190565b6020808252818101527f4f776e61626c653a2063616c6c6572206973206e6f7420746865206f776e6572604082015260600190565b60208082526029908201527f4552433732313a207472616e73666572206f6620746f6b656e2074686174206960408201526839903737ba1037bbb760b91b606082015260800190565b6020808252602f908201527f4552433732314d657461646174613a2055524920717565727920666f72206e6f60408201526e3732bc34b9ba32b73a103a37b5b2b760891b606082015260800190565b60208082526021908201527f4552433732313a20617070726f76616c20746f2063757272656e74206f776e656040820152603960f91b606082015260800190565b60208082526031908201527f4552433732313a207472616e736665722063616c6c6572206973206e6f74206f6040820152701ddb995c881b9bdc88185c1c1c9bdd9959607a1b606082015260800190565b90815260200190565b60405181810167ffffffffffffffff81118282101715611bf957611bf9611d12565b604052919050565b60009081526020902090565b60008219821115611c2057611c20611ce6565b500190565b600082611c3457611c34611cfc565b500490565b600082821015611c4b57611c4b611ce6565b500390565b60005b83811015611c6b578181015183820152602001611c53565b8381111561071c5750506000910152565b600281046001821680611c9057607f821691505b60208210811415611cb157634e487b7160e01b600052602260045260246000fd5b50919050565b6000600019821415611ccb57611ccb611ce6565b5060010190565b600082611ce157611ce1611cfc565b500690565b634e487b7160e01b600052601160045260246000fd5b634e487b7160e01b600052601260045260246000fd5b634e487b7160e01b600052604160045260246000fd5b6001600160e01b0319811681146108df57600080fdfea26469706673582212200ed839f1b44daae79f90b666fa2bf6b2445761c4e2bc35e8846feabf5cd0a89064736f6c63430008000033",
  "immutableReferences": {},
  "source": "// SPDX-License-Identifier: MIT\n\npragma solidity ^0.8.0;\n\nimport \"@openzeppelin/contracts/token/ERC721/extensions/ERC721URIStorage.sol\";\nimport \"@openzeppelin/contracts/access/Ownable.sol\";\nimport \"@openzeppelin/contracts/utils/Counters.sol\";\n\ncontract SpaceShipEventContract is ERC721URIStorage, Ownable {\n    using Counters for Counters.Counter;\n    using Strings for uint256;\n    Counters.Counter _tokenIds;\n    string private _CID;\n    mapping(uint256 => SpaceShip) private _AliveSpaceShipDatas;\n    mapping(uint256 => SpaceShip) private _spaceShipDatas;\n\n    constructor(string memory CID) ERC721(\"Space Ship Event Contract\", \"SPE\") {\n        bytes memory tempCID = bytes(CID);\n        require(tempCID.length > 0, \"Space Ship Event: no CID provided\");\n        _CID = CID;\n    }\n\n    struct SpaceShipStat {\n        uint256 atk;\n        uint256 def;\n        uint256 speed;\n    }\n    struct SpaceShipParts {\n        uint256 body;\n        uint256 bodySkin;\n        uint256 reactor;\n        uint256 reactorSkin;\n        uint256 weapon;\n        uint256 weaponSkin;\n    }\n    struct SpaceShip {\n        uint256 id;\n        SpaceShipStat stats;\n        SpaceShipParts parts;\n        bool isDestroyed;\n    }\n\n    function getCID() public view virtual returns (string memory) {\n        return _CID;\n    }\n\n    function _partsToStr(SpaceShipParts memory parts) internal pure returns (string memory) {\n      return string(abi.encodePacked(parts.body, \"-\", parts.bodySkin, \"_\",parts.reactor, \"-\", parts.reactorSkin, \"_\",parts.weapon, \"-\", parts.weaponSkin, \"_\"));\n    }\n\n    function _createTokenURI(SpaceShipParts memory parts) internal view returns(string memory) {\n        return string(abi.encodePacked(_CID, '/?filename=\"', _partsToStr(parts), '\"'));\n    }\n\n    function _setSpaceShipForToken(uint256 tokenId, SpaceShip memory spaceShip) internal {\n        _spaceShipDatas[tokenId] = spaceShip;\n    }\n\n    function _destroySpaceShip(uint256 tokenId) internal {\n        _spaceShipDatas[tokenId].isDestroyed = true;\n        //TODO: change ifps for destroyed ship , sorry boys !\n    }\n\n    function mintSpaceShip(address recipient, SpaceShip memory spaceShip) public onlyOwner returns(uint256) {\n        uint256 newId = _tokenIds.current();\n        spaceShip.isDestroyed = false;\n        string memory uri = _createTokenURI(spaceShip.parts);\n        _setTokenURI(newId, uri);\n        _setSpaceShipForToken(newId, spaceShip);\n        _mint(recipient, newId);\n        _tokenIds.increment();\n        return newId;\n    }\n}\n",
  "sourcePath": "G:\\NFT\\NFT-SpaceShip-Event\\contracts\\SpaceShipEventContract.sol",
  "compiler": {
    "name": "solc",
    "version": "0.8.0+commit.c7dfd78e.Emscripten.clang"
  },
  "schemaVersion": "3.4.3",
  "updatedAt": "2021-09-22T20:11:59.690Z",
  "networkType": "ethereum",
  "devdoc": {
    "kind": "dev",
    "methods": {
      "approve(address,uint256)": {
        "details": "See {IERC721-approve}."
      },
      "balanceOf(address)": {
        "details": "See {IERC721-balanceOf}."
      },
      "getApproved(uint256)": {
        "details": "See {IERC721-getApproved}."
      },
      "isApprovedForAll(address,address)": {
        "details": "See {IERC721-isApprovedForAll}."
      },
      "name()": {
        "details": "See {IERC721Metadata-name}."
      },
      "owner()": {
        "details": "Returns the address of the current owner."
      },
      "ownerOf(uint256)": {
        "details": "See {IERC721-ownerOf}."
      },
      "renounceOwnership()": {
        "details": "Leaves the contract without owner. It will not be possible to call `onlyOwner` functions anymore. Can only be called by the current owner. NOTE: Renouncing ownership will leave the contract without an owner, thereby removing any functionality that is only available to the owner."
      },
      "safeTransferFrom(address,address,uint256)": {
        "details": "See {IERC721-safeTransferFrom}."
      },
      "safeTransferFrom(address,address,uint256,bytes)": {
        "details": "See {IERC721-safeTransferFrom}."
      },
      "setApprovalForAll(address,bool)": {
        "details": "See {IERC721-setApprovalForAll}."
      },
      "supportsInterface(bytes4)": {
        "details": "See {IERC165-supportsInterface}."
      },
      "symbol()": {
        "details": "See {IERC721Metadata-symbol}."
      },
      "tokenURI(uint256)": {
        "details": "See {IERC721Metadata-tokenURI}."
      },
      "transferFrom(address,address,uint256)": {
        "details": "See {IERC721-transferFrom}."
      },
      "transferOwnership(address)": {
        "details": "Transfers ownership of the contract to a new account (`newOwner`). Can only be called by the current owner."
      }
    },
    "version": 1
  },
  "userdoc": {
    "kind": "user",
    "methods": {},
    "version": 1
  }
}