{
  "contractName": "SpaceShipEventContract",
  "abi": [
    {
      "inputs": [
        {
          "internalType": "string",
          "name": "CID",
          "type": "string"
        }
      ],
      "stateMutability": "nonpayable",
      "type": "constructor"
    },
    {
      "anonymous": false,
      "inputs": [
        {
          "indexed": true,
          "internalType": "address",
          "name": "owner",
          "type": "address"
        },
        {
          "indexed": true,
          "internalType": "address",
          "name": "approved",
          "type": "address"
        },
        {
          "indexed": true,
          "internalType": "uint256",
          "name": "tokenId",
          "type": "uint256"
        }
      ],
      "name": "Approval",
      "type": "event"
    },
    {
      "anonymous": false,
      "inputs": [
        {
          "indexed": true,
          "internalType": "address",
          "name": "owner",
          "type": "address"
        },
        {
          "indexed": true,
          "internalType": "address",
          "name": "operator",
          "type": "address"
        },
        {
          "indexed": false,
          "internalType": "bool",
          "name": "approved",
          "type": "bool"
        }
      ],
      "name": "ApprovalForAll",
      "type": "event"
    },
    {
      "anonymous": false,
      "inputs": [
        {
          "indexed": true,
          "internalType": "address",
          "name": "previousOwner",
          "type": "address"
        },
        {
          "indexed": true,
          "internalType": "address",
          "name": "newOwner",
          "type": "address"
        }
      ],
      "name": "OwnershipTransferred",
      "type": "event"
    },
    {
      "anonymous": false,
      "inputs": [
        {
          "indexed": true,
          "internalType": "address",
          "name": "from",
          "type": "address"
        },
        {
          "indexed": true,
          "internalType": "address",
          "name": "to",
          "type": "address"
        },
        {
          "indexed": true,
          "internalType": "uint256",
          "name": "tokenId",
          "type": "uint256"
        }
      ],
      "name": "Transfer",
      "type": "event"
    },
    {
      "inputs": [
        {
          "internalType": "address",
          "name": "to",
          "type": "address"
        },
        {
          "internalType": "uint256",
          "name": "tokenId",
          "type": "uint256"
        }
      ],
      "name": "approve",
      "outputs": [],
      "stateMutability": "nonpayable",
      "type": "function"
    },
    {
      "inputs": [
        {
          "internalType": "address",
          "name": "owner",
          "type": "address"
        }
      ],
      "name": "balanceOf",
      "outputs": [
        {
          "internalType": "uint256",
          "name": "",
          "type": "uint256"
        }
      ],
      "stateMutability": "view",
      "type": "function",
      "constant": true
    },
    {
      "inputs": [
        {
          "internalType": "uint256",
          "name": "tokenId",
          "type": "uint256"
        }
      ],
      "name": "getApproved",
      "outputs": [
        {
          "internalType": "address",
          "name": "",
          "type": "address"
        }
      ],
      "stateMutability": "view",
      "type": "function",
      "constant": true
    },
    {
      "inputs": [
        {
          "internalType": "address",
          "name": "owner",
          "type": "address"
        },
        {
          "internalType": "address",
          "name": "operator",
          "type": "address"
        }
      ],
      "name": "isApprovedForAll",
      "outputs": [
        {
          "internalType": "bool",
          "name": "",
          "type": "bool"
        }
      ],
      "stateMutability": "view",
      "type": "function",
      "constant": true
    },
    {
      "inputs": [],
      "name": "name",
      "outputs": [
        {
          "internalType": "string",
          "name": "",
          "type": "string"
        }
      ],
      "stateMutability": "view",
      "type": "function",
      "constant": true
    },
    {
      "inputs": [],
      "name": "owner",
      "outputs": [
        {
          "internalType": "address",
          "name": "",
          "type": "address"
        }
      ],
      "stateMutability": "view",
      "type": "function",
      "constant": true
    },
    {
      "inputs": [
        {
          "internalType": "uint256",
          "name": "tokenId",
          "type": "uint256"
        }
      ],
      "name": "ownerOf",
      "outputs": [
        {
          "internalType": "address",
          "name": "",
          "type": "address"
        }
      ],
      "stateMutability": "view",
      "type": "function",
      "constant": true
    },
    {
      "inputs": [],
      "name": "renounceOwnership",
      "outputs": [],
      "stateMutability": "nonpayable",
      "type": "function"
    },
    {
      "inputs": [
        {
          "internalType": "address",
          "name": "from",
          "type": "address"
        },
        {
          "internalType": "address",
          "name": "to",
          "type": "address"
        },
        {
          "internalType": "uint256",
          "name": "tokenId",
          "type": "uint256"
        }
      ],
      "name": "safeTransferFrom",
      "outputs": [],
      "stateMutability": "nonpayable",
      "type": "function"
    },
    {
      "inputs": [
        {
          "internalType": "address",
          "name": "from",
          "type": "address"
        },
        {
          "internalType": "address",
          "name": "to",
          "type": "address"
        },
        {
          "internalType": "uint256",
          "name": "tokenId",
          "type": "uint256"
        },
        {
          "internalType": "bytes",
          "name": "_data",
          "type": "bytes"
        }
      ],
      "name": "safeTransferFrom",
      "outputs": [],
      "stateMutability": "nonpayable",
      "type": "function"
    },
    {
      "inputs": [
        {
          "internalType": "address",
          "name": "operator",
          "type": "address"
        },
        {
          "internalType": "bool",
          "name": "approved",
          "type": "bool"
        }
      ],
      "name": "setApprovalForAll",
      "outputs": [],
      "stateMutability": "nonpayable",
      "type": "function"
    },
    {
      "inputs": [
        {
          "internalType": "bytes4",
          "name": "interfaceId",
          "type": "bytes4"
        }
      ],
      "name": "supportsInterface",
      "outputs": [
        {
          "internalType": "bool",
          "name": "",
          "type": "bool"
        }
      ],
      "stateMutability": "view",
      "type": "function",
      "constant": true
    },
    {
      "inputs": [],
      "name": "symbol",
      "outputs": [
        {
          "internalType": "string",
          "name": "",
          "type": "string"
        }
      ],
      "stateMutability": "view",
      "type": "function",
      "constant": true
    },
    {
      "inputs": [
        {
          "internalType": "uint256",
          "name": "tokenId",
          "type": "uint256"
        }
      ],
      "name": "tokenURI",
      "outputs": [
        {
          "internalType": "string",
          "name": "",
          "type": "string"
        }
      ],
      "stateMutability": "view",
      "type": "function",
      "constant": true
    },
    {
      "inputs": [
        {
          "internalType": "address",
          "name": "from",
          "type": "address"
        },
        {
          "internalType": "address",
          "name": "to",
          "type": "address"
        },
        {
          "internalType": "uint256",
          "name": "tokenId",
          "type": "uint256"
        }
      ],
      "name": "transferFrom",
      "outputs": [],
      "stateMutability": "nonpayable",
      "type": "function"
    },
    {
      "inputs": [
        {
          "internalType": "address",
          "name": "newOwner",
          "type": "address"
        }
      ],
      "name": "transferOwnership",
      "outputs": [],
      "stateMutability": "nonpayable",
      "type": "function"
    },
    {
      "inputs": [],
      "name": "totalShips",
      "outputs": [
        {
          "internalType": "uint256",
          "name": "",
          "type": "uint256"
        }
      ],
      "stateMutability": "view",
      "type": "function",
      "constant": true
    },
    {
      "inputs": [],
      "name": "getCID",
      "outputs": [
        {
          "internalType": "string",
          "name": "",
          "type": "string"
        }
      ],
      "stateMutability": "view",
      "type": "function",
      "constant": true
    },
    {
      "inputs": [
        {
          "internalType": "uint256",
          "name": "tokenId",
          "type": "uint256"
        }
      ],
      "name": "getShip",
      "outputs": [
        {
          "components": [
            {
              "internalType": "uint256",
              "name": "id",
              "type": "uint256"
            },
            {
              "components": [
                {
                  "internalType": "uint256",
                  "name": "atk",
                  "type": "uint256"
                },
                {
                  "internalType": "uint256",
                  "name": "def",
                  "type": "uint256"
                },
                {
                  "internalType": "uint256",
                  "name": "speed",
                  "type": "uint256"
                }
              ],
              "internalType": "struct SpaceShips.ShipStat",
              "name": "stats",
              "type": "tuple"
            },
            {
              "components": [
                {
                  "internalType": "uint256",
                  "name": "body",
                  "type": "uint256"
                },
                {
                  "internalType": "uint256",
                  "name": "bodySkin",
                  "type": "uint256"
                },
                {
                  "internalType": "uint256",
                  "name": "reactor",
                  "type": "uint256"
                },
                {
                  "internalType": "uint256",
                  "name": "reactorSkin",
                  "type": "uint256"
                },
                {
                  "internalType": "uint256",
                  "name": "weapon",
                  "type": "uint256"
                },
                {
                  "internalType": "uint256",
                  "name": "weaponSkin",
                  "type": "uint256"
                }
              ],
              "internalType": "struct SpaceShips.ShipParts",
              "name": "parts",
              "type": "tuple"
            },
            {
              "internalType": "bool",
              "name": "isDestroyed",
              "type": "bool"
            }
          ],
          "internalType": "struct SpaceShips.Ship",
          "name": "",
          "type": "tuple"
        }
      ],
      "stateMutability": "view",
      "type": "function",
      "constant": true
    },
    {
      "inputs": [
        {
          "internalType": "address",
          "name": "recipient",
          "type": "address"
        },
        {
          "components": [
            {
              "internalType": "uint256",
              "name": "id",
              "type": "uint256"
            },
            {
              "components": [
                {
                  "internalType": "uint256",
                  "name": "atk",
                  "type": "uint256"
                },
                {
                  "internalType": "uint256",
                  "name": "def",
                  "type": "uint256"
                },
                {
                  "internalType": "uint256",
                  "name": "speed",
                  "type": "uint256"
                }
              ],
              "internalType": "struct SpaceShips.ShipStat",
              "name": "stats",
              "type": "tuple"
            },
            {
              "components": [
                {
                  "internalType": "uint256",
                  "name": "body",
                  "type": "uint256"
                },
                {
                  "internalType": "uint256",
                  "name": "bodySkin",
                  "type": "uint256"
                },
                {
                  "internalType": "uint256",
                  "name": "reactor",
                  "type": "uint256"
                },
                {
                  "internalType": "uint256",
                  "name": "reactorSkin",
                  "type": "uint256"
                },
                {
                  "internalType": "uint256",
                  "name": "weapon",
                  "type": "uint256"
                },
                {
                  "internalType": "uint256",
                  "name": "weaponSkin",
                  "type": "uint256"
                }
              ],
              "internalType": "struct SpaceShips.ShipParts",
              "name": "parts",
              "type": "tuple"
            },
            {
              "internalType": "bool",
              "name": "isDestroyed",
              "type": "bool"
            }
          ],
          "internalType": "struct SpaceShips.Ship",
          "name": "spaceShip",
          "type": "tuple"
        }
      ],
      "name": "mintSpaceShip",
      "outputs": [
        {
          "internalType": "uint256",
          "name": "",
          "type": "uint256"
        }
      ],
      "stateMutability": "nonpayable",
      "type": "function"
    }
  ],
  "bytecode": "0x60806040523480156200001157600080fd5b50604051620022a7380380620022a783398101604081905262000034916200020d565b604080518082018252601981527f53706163652053686970204576656e7420436f6e74726163740000000000000060208083019182528351808501909452600384526253504560e81b908401528151919291620000949160009162000167565b508051620000aa90600190602084019062000167565b505050620000c7620000c16200011160201b60201c565b62000115565b80518190620000f35760405162461bcd60e51b8152600401620000ea90620002dc565b60405180910390fd5b81516200010890600990602085019062000167565b50505062000370565b3390565b600780546001600160a01b038381166001600160a01b0319831681179093556040519116919082907f8be0079c531659141344cd1fd0a4f28419497f9722a3daafe3b4186f6b6457e090600090a35050565b82805462000175906200031d565b90600052602060002090601f016020900481019282620001995760008555620001e4565b82601f10620001b457805160ff1916838001178555620001e4565b82800160010185558215620001e4579182015b82811115620001e4578251825591602001919060010190620001c7565b50620001f2929150620001f6565b5090565b5b80821115620001f25760008155600101620001f7565b6000602080838503121562000220578182fd5b82516001600160401b038082111562000237578384fd5b818501915085601f8301126200024b578384fd5b8151818111156200026057620002606200035a565b604051601f8201601f19168101850183811182821017156200028657620002866200035a565b60405281815283820185018810156200029d578586fd5b8592505b81831015620002c05783830185015181840186015291840191620002a1565b81831115620002d157858583830101525b979650505050505050565b60208082526021908201527f53706163652053686970204576656e743a206e6f204349442070726f766964656040820152601960fa1b606082015260800190565b6002810460018216806200033257607f821691505b602082108114156200035457634e487b7160e01b600052602260045260246000fd5b50919050565b634e487b7160e01b600052604160045260246000fd5b611f2780620003806000396000f3fe608060405234801561001057600080fd5b506004361061012c5760003560e01c80636352211e116100ad578063a22cb46511610071578063a22cb46514610258578063b88d4fde1461026b578063c87b56dd1461027e578063e985e9c514610291578063f2fde38b146102a45761012c565b80636352211e1461021a57806370a082311461022d578063715018a6146102405780638da5cb5b1461024857806395d89b41146102505761012c565b806323b872dd116100f457806323b872dd146101ac5780634025b22d146101bf57806342842e0e146101df57806356a11f63146101f25780635c2e8e28146102125761012c565b806301ffc9a71461013157806302790e341461015a57806306fdde031461016f578063081812fc14610177578063095ea7b314610197575b600080fd5b61014461013f36600461159b565b6102b7565b60405161015191906117d5565b60405180910390f35b6101626102ff565b60405161015191906117e0565b610162610391565b61018a6101853660046115d3565b6103a0565b6040516101519190611784565b6101aa6101a5366004611572565b6103ec565b005b6101aa6101ba366004611373565b610484565b6101d26101cd3660046115d3565b6104bc565b6040516101519190611cf8565b6101aa6101ed366004611373565b61056a565b61020561020036600461148f565b610585565b6040516101519190611d81565b6102056105d5565b61018a6102283660046115d3565b6105e6565b61020561023b366004611327565b61061b565b6101aa61065f565b61018a6106aa565b6101626106b9565b6101aa610266366004611466565b6106c8565b6101aa6102793660046113ae565b610796565b61016261028c3660046115d3565b6107d5565b61014461029f366004611341565b6108f6565b6101aa6102b2366004611327565b610924565b60006001600160e01b031982166380ac58cd60e01b14806102e857506001600160e01b03198216635b5e139f60e01b145b806102f757506102f782610995565b90505b919050565b60606009805461030e90611e2f565b80601f016020809104026020016040519081016040528092919081815260200182805461033a90611e2f565b80156103875780601f1061035c57610100808354040283529160200191610387565b820191906000526020600020905b81548152906001019060200180831161036a57829003601f168201915b5050505050905090565b60606000805461030e90611e2f565b60006103ab826109ae565b6103d05760405162461bcd60e51b81526004016103c790611b4d565b60405180910390fd5b506000908152600460205260409020546001600160a01b031690565b60006103f7826105e6565b9050806001600160a01b0316836001600160a01b0316141561042b5760405162461bcd60e51b81526004016103c790611c66565b806001600160a01b031661043d6109cb565b6001600160a01b0316148061045957506104598161029f6109cb565b6104755760405162461bcd60e51b81526004016103c790611989565b61047f83836109cf565b505050565b61049561048f6109cb565b82610a3d565b6104b15760405162461bcd60e51b81526004016103c790611ca7565b61047f838383610aba565b6104c4611163565b506000908152600b6020908152604091829020825160808082018552825482528451606080820187526001850154825260028501548287015260038501548288015283860191909152855160c08101875260048501548152600585015495810195909552600684015485870152600784015485820152600884015491850191909152600983015460a085015293810192909252600a015460ff1615159181019190915290565b61047f83838360405180602001604052806000815250610796565b6000806105926008610be7565b905061059e8482610beb565b60006105ad8460400151610cca565b90506105b98282610cfe565b6105c38285610d42565b6105cd6008610dcf565b509392505050565b60006105e16008610be7565b905090565b6000818152600260205260408120546001600160a01b0316806102f75760405162461bcd60e51b81526004016103c790611a30565b60006001600160a01b0382166106435760405162461bcd60e51b81526004016103c7906119e6565b506001600160a01b031660009081526003602052604090205490565b6106676109cb565b6001600160a01b03166106786106aa565b6001600160a01b03161461069e5760405162461bcd60e51b81526004016103c790611b99565b6106a86000610dd8565b565b6007546001600160a01b031690565b60606001805461030e90611e2f565b6106d06109cb565b6001600160a01b0316826001600160a01b031614156107015760405162461bcd60e51b81526004016103c790611906565b806005600061070e6109cb565b6001600160a01b03908116825260208083019390935260409182016000908120918716808252919093529120805460ff1916921515929092179091556107526109cb565b6001600160a01b03167f17307eab39ab6107e8899845ad3d59bd9653f200f220920489ca2b5937696c318360405161078a91906117d5565b60405180910390a35050565b6107a76107a16109cb565b83610a3d565b6107c35760405162461bcd60e51b81526004016103c790611ca7565b6107cf84848484610e2a565b50505050565b60606107e0826109ae565b6107fc5760405162461bcd60e51b81526004016103c790611afc565b6000828152600660205260408120805461081590611e2f565b80601f016020809104026020016040519081016040528092919081815260200182805461084190611e2f565b801561088e5780601f106108635761010080835404028352916020019161088e565b820191906000526020600020905b81548152906001019060200180831161087157829003601f168201915b50505050509050600061089f610e5d565b90508051600014156108b3575090506102fa565b8151156108e55780826040516020016108cd929190611646565b604051602081830303815290604052925050506102fa565b6108ee84610e6f565b949350505050565b6001600160a01b03918216600090815260056020908152604080832093909416825291909152205460ff1690565b61092c6109cb565b6001600160a01b031661093d6106aa565b6001600160a01b0316146109635760405162461bcd60e51b81526004016103c790611b99565b6001600160a01b0381166109895760405162461bcd60e51b81526004016103c790611845565b61099281610dd8565b50565b6001600160e01b031981166301ffc9a760e01b14919050565b6000908152600260205260409020546001600160a01b0316151590565b3390565b600081815260046020526040902080546001600160a01b0319166001600160a01b0384169081179091558190610a04826105e6565b6001600160a01b03167f8c5be1e5ebec7d5bd14f71427d1e84f3dd0314c0f7b2291e5b200ac8c7c3b92560405160405180910390a45050565b6000610a48826109ae565b610a645760405162461bcd60e51b81526004016103c79061193d565b6000610a6f836105e6565b9050806001600160a01b0316846001600160a01b03161480610aaa5750836001600160a01b0316610a9f846103a0565b6001600160a01b0316145b806108ee57506108ee81856108f6565b826001600160a01b0316610acd826105e6565b6001600160a01b031614610af35760405162461bcd60e51b81526004016103c790611bce565b6001600160a01b038216610b195760405162461bcd60e51b81526004016103c7906118c2565b610b2483838361047f565b610b2f6000826109cf565b6001600160a01b0383166000908152600360205260408120805460019290610b58908490611dec565b90915550506001600160a01b0382166000908152600360205260408120805460019290610b86908490611dc0565b909155505060008181526002602052604080822080546001600160a01b0319166001600160a01b0386811691821790925591518493918716917fddf252ad1be2c89b69c2b068fc378daa952ba7f163c4a11628f55a4df523b3ef91a4505050565b5490565b6001600160a01b038216610c115760405162461bcd60e51b81526004016103c790611ac7565b610c1a816109ae565b15610c375760405162461bcd60e51b81526004016103c79061188b565b610c436000838361047f565b6001600160a01b0382166000908152600360205260408120805460019290610c6c908490611dc0565b909155505060008181526002602052604080822080546001600160a01b0319166001600160a01b03861690811790915590518392907fddf252ad1be2c89b69c2b068fc378daa952ba7f163c4a11628f55a4df523b3ef908290a45050565b60606009610cd783610ef2565b604051602001610ce8929190611675565b6040516020818303038152906040529050919050565b610d07826109ae565b610d235760405162461bcd60e51b81526004016103c790611a79565b6000828152600660209081526040909120825161047f92840190611197565b60006060828101828152848452938252600b60209081526040928390208451815581850151805160018301558083015160028301558401516003820155938301518051600486015590810151600585015591820151600684015581015160078301556080810151600883015560a0015160098201559051600a909101805460ff1916911515919091179055565b80546001019055565b600780546001600160a01b038381166001600160a01b0319831681179093556040519116919082907f8be0079c531659141344cd1fd0a4f28419497f9722a3daafe3b4186f6b6457e090600090a35050565b610e35848484610aba565b610e4184848484610f27565b6107cf5760405162461bcd60e51b81526004016103c7906117f3565b60408051602081019091526000815290565b6060610e7a826109ae565b610e965760405162461bcd60e51b81526004016103c790611c17565b6000610ea0610e5d565b90506000815111610ec05760405180602001604052806000815250610eeb565b80610eca84611042565b604051602001610edb929190611646565b6040516020818303038152906040525b9392505050565b6060816000015182602001518360400151846060015185608001518660a00151604051602001610ce896959493929190611723565b6000610f3b846001600160a01b031661115d565b1561103757836001600160a01b031663150b7a02610f576109cb565b8786866040518563ffffffff1660e01b8152600401610f799493929190611798565b602060405180830381600087803b158015610f9357600080fd5b505af1925050508015610fc3575060408051601f3d908101601f19168201909252610fc0918101906115b7565b60015b61101d573d808015610ff1576040519150601f19603f3d011682016040523d82523d6000602084013e610ff6565b606091505b5080516110155760405162461bcd60e51b81526004016103c7906117f3565b805181602001fd5b6001600160e01b031916630a85bd0160e11b1490506108ee565b506001949350505050565b60608161106757506040805180820190915260018152600360fc1b60208201526102fa565b8160005b8115611091578061107b81611e6a565b915061108a9050600a83611dd8565b915061106b565b60008167ffffffffffffffff8111156110ba57634e487b7160e01b600052604160045260246000fd5b6040519080825280601f01601f1916602001820160405280156110e4576020820181803683370190505b5090505b84156108ee576110f9600183611dec565b9150611106600a86611e85565b611111906030611dc0565b60f81b81838151811061113457634e487b7160e01b600052603260045260246000fd5b60200101906001600160f81b031916908160001a905350611156600a86611dd8565b94506110e8565b3b151590565b60405180608001604052806000815260200161117d61121b565b815260200161118a61123c565b8152600060209091015290565b8280546111a390611e2f565b90600052602060002090601f0160209004810192826111c5576000855561120b565b82601f106111de57805160ff191683800117855561120b565b8280016001018555821561120b579182015b8281111561120b5782518255916020019190600101906111f0565b50611217929150611272565b5090565b60405180606001604052806000815260200160008152602001600081525090565b6040518060c001604052806000815260200160008152602001600081526020016000815260200160008152602001600081525090565b5b808211156112175760008155600101611273565b80356001600160a01b03811681146102fa57600080fd5b803580151581146102fa57600080fd5b600060c082840312156112bf578081fd5b60405160c0810181811067ffffffffffffffff821117156112e2576112e2611ec5565b8060405250809150823581526020830135602082015260408301356040820152606083013560608201526080830135608082015260a083013560a08201525092915050565b600060208284031215611338578081fd5b610eeb82611287565b60008060408385031215611353578081fd5b61135c83611287565b915061136a60208401611287565b90509250929050565b600080600060608486031215611387578081fd5b61139084611287565b925061139e60208501611287565b9150604084013590509250925092565b600080600080608085870312156113c3578081fd5b6113cc85611287565b935060206113db818701611287565b935060408601359250606086013567ffffffffffffffff808211156113fe578384fd5b818801915088601f830112611411578384fd5b81358181111561142357611423611ec5565b611435601f8201601f19168501611d8a565b9150808252898482850101111561144a578485fd5b8084840185840137810190920192909252939692955090935050565b60008060408385031215611478578182fd5b61148183611287565b915061136a6020840161129e565b6000808284036101808112156114a3578283fd5b6114ac84611287565b925061016080601f19830112156114c1578283fd5b604080516080810167ffffffffffffffff82821081831117156114e6576114e6611ec5565b818452602089013583526060603f1987011215611501578687fd5b83519550606086019150858210818311171561151f5761151f611ec5565b5080835250818701358452606087013560208501526080870135828501528360208201526115508860a089016112ae565b8282015261155f83880161129e565b6060820152809450505050509250929050565b60008060408385031215611584578182fd5b61158d83611287565b946020939093013593505050565b6000602082840312156115ac578081fd5b8135610eeb81611edb565b6000602082840312156115c8578081fd5b8151610eeb81611edb565b6000602082840312156115e4578081fd5b5035919050565b15159052565b60008151808452611609816020860160208601611e03565b601f01601f19169290920160200192915050565b6000815161162f818560208601611e03565b9290920192915050565b602f60f81b815260010190565b60008351611658818460208801611e03565b83519083019061166c818360208801611e03565b01949350505050565b825460009081906002810460018083168061169157607f831692505b60208084108214156116b157634e487b7160e01b87526022600452602487fd5b8180156116c557600181146116d657611702565b60ff19861689528489019650611702565b6116df8b611db4565b885b868110156116fa5781548b8201529085019083016116e1565b505084890196505b50505050505061171a61171482611639565b8561161d565b95945050505050565b958652602d60f81b602087018190526021870195909552605f60f81b60418701819052604287019490945260628601859052606386019290925260838501839052608485015260a484019290925260a583019190915260c582015260c60190565b6001600160a01b0391909116815260200190565b6001600160a01b03858116825284166020820152604081018390526080606082018190526000906117cb908301846115f1565b9695505050505050565b901515815260200190565b600060208252610eeb60208301846115f1565b60208082526032908201527f4552433732313a207472616e7366657220746f206e6f6e20455243373231526560408201527131b2b4bb32b91034b6b83632b6b2b73a32b960711b606082015260800190565b60208082526026908201527f4f776e61626c653a206e6577206f776e657220697320746865207a65726f206160408201526564647265737360d01b606082015260800190565b6020808252601c908201527f4552433732313a20746f6b656e20616c7265616479206d696e74656400000000604082015260600190565b60208082526024908201527f4552433732313a207472616e7366657220746f20746865207a65726f206164646040820152637265737360e01b606082015260800190565b60208082526019908201527f4552433732313a20617070726f766520746f2063616c6c657200000000000000604082015260600190565b6020808252602c908201527f4552433732313a206f70657261746f7220717565727920666f72206e6f6e657860408201526b34b9ba32b73a103a37b5b2b760a11b606082015260800190565b60208082526038908201527f4552433732313a20617070726f76652063616c6c6572206973206e6f74206f7760408201527f6e6572206e6f7220617070726f76656420666f7220616c6c0000000000000000606082015260800190565b6020808252602a908201527f4552433732313a2062616c616e636520717565727920666f7220746865207a65604082015269726f206164647265737360b01b606082015260800190565b60208082526029908201527f4552433732313a206f776e657220717565727920666f72206e6f6e657869737460408201526832b73a103a37b5b2b760b91b606082015260800190565b6020808252602e908201527f45524337323155524953746f726167653a2055524920736574206f66206e6f6e60408201526d32bc34b9ba32b73a103a37b5b2b760911b606082015260800190565b6020808252818101527f4552433732313a206d696e7420746f20746865207a65726f2061646472657373604082015260600190565b60208082526031908201527f45524337323155524953746f726167653a2055524920717565727920666f72206040820152703737b732bc34b9ba32b73a103a37b5b2b760791b606082015260800190565b6020808252602c908201527f4552433732313a20617070726f76656420717565727920666f72206e6f6e657860408201526b34b9ba32b73a103a37b5b2b760a11b606082015260800190565b6020808252818101527f4f776e61626c653a2063616c6c6572206973206e6f7420746865206f776e6572604082015260600190565b60208082526029908201527f4552433732313a207472616e73666572206f6620746f6b656e2074686174206960408201526839903737ba1037bbb760b91b606082015260800190565b6020808252602f908201527f4552433732314d657461646174613a2055524920717565727920666f72206e6f60408201526e3732bc34b9ba32b73a103a37b5b2b760891b606082015260800190565b60208082526021908201527f4552433732313a20617070726f76616c20746f2063757272656e74206f776e656040820152603960f91b606082015260800190565b60208082526031908201527f4552433732313a207472616e736665722063616c6c6572206973206e6f74206f6040820152701ddb995c881b9bdc88185c1c1c9bdd9959607a1b606082015260800190565b60006101608201905082518252602083015180516020840152602081015160408401526040810151606084015250604083015180516080840152602081015160a0840152604081015160c0840152606081015160e0840152608081015161010084015260a0810151610120840152506060830151611d7a6101408401826115eb565b5092915050565b90815260200190565b60405181810167ffffffffffffffff81118282101715611dac57611dac611ec5565b604052919050565b60009081526020902090565b60008219821115611dd357611dd3611e99565b500190565b600082611de757611de7611eaf565b500490565b600082821015611dfe57611dfe611e99565b500390565b60005b83811015611e1e578181015183820152602001611e06565b838111156107cf5750506000910152565b600281046001821680611e4357607f821691505b60208210811415611e6457634e487b7160e01b600052602260045260246000fd5b50919050565b6000600019821415611e7e57611e7e611e99565b5060010190565b600082611e9457611e94611eaf565b500690565b634e487b7160e01b600052601160045260246000fd5b634e487b7160e01b600052601260045260246000fd5b634e487b7160e01b600052604160045260246000fd5b6001600160e01b03198116811461099257600080fdfea26469706673582212209c37e659ba0d1932c901bb4549ca93e740faeb2948ec71997e8fbd4835fe35b364736f6c63430008000033",
  "immutableReferences": {},
  "source": "// SPDX-License-Identifier: MIT\n\npragma solidity ^0.8.0;\n\nimport \"@openzeppelin/contracts/token/ERC721/extensions/ERC721URIStorage.sol\";\nimport \"@openzeppelin/contracts/access/Ownable.sol\";\nimport \"@openzeppelin/contracts/utils/Counters.sol\";\n\nlibrary SpaceShips {\n    struct ShipStat {\n        uint256 atk;\n        uint256 def;\n        uint256 speed;\n    }\n    struct ShipParts {\n        uint256 body;\n        uint256 bodySkin;\n        uint256 reactor;\n        uint256 reactorSkin;\n        uint256 weapon;\n        uint256 weaponSkin;\n    }\n    struct Ship {\n        uint256 id;\n        ShipStat stats;\n        ShipParts parts;\n        bool isDestroyed;\n    }\n}\n\ncontract SpaceShipEventContract is ERC721URIStorage, Ownable {\n    using Counters for Counters.Counter;\n    using Strings for uint256;\n    Counters.Counter _tokenIds;\n    string private _CID;\n    mapping(uint256 => SpaceShips.Ship) private _AliveSpaceShipDatas;\n    mapping(uint256 => SpaceShips.Ship) private _spaceShipDatas;\n\n    constructor(string memory CID) ERC721(\"Space Ship Event Contract\", \"SPE\") {\n        bytes memory tempCID = bytes(CID);\n        require(tempCID.length > 0, \"Space Ship Event: no CID provided\");\n        _CID = CID;\n    }\n\n    function totalShips() public view returns(uint256) {\n        return _tokenIds.current();\n    }\n\n    function getCID() public view virtual returns (string memory) {\n        return _CID;\n    }\n\n    function getShip(uint256 tokenId) public view returns (SpaceShips.Ship memory) {\n        return _spaceShipDatas[tokenId];\n    }\n\n    function _partsToStr(SpaceShips.ShipParts memory parts) internal view returns (string memory) {\n      return string(abi.encodePacked(parts.body, \"-\", parts.bodySkin, \"_\",parts.reactor, \"-\", parts.reactorSkin, \"_\",parts.weapon, \"-\", parts.weaponSkin, \"_\"));\n    }\n\n    function _createTokenURI(SpaceShips.ShipParts memory parts) internal view returns(string memory) {\n        return string(abi.encodePacked(_CID, '/', _partsToStr(parts)));\n    }\n\n    function _createSpaceShipForToken(uint256 tokenId, SpaceShips.Ship memory spaceShip) internal {\n         spaceShip.isDestroyed = false;\n         spaceShip.id = tokenId;\n        _spaceShipDatas[tokenId] = spaceShip;\n    }\n\n    function _destroySpaceShip(uint256 tokenId) internal {\n        _spaceShipDatas[tokenId].isDestroyed = true;\n        //TODO: change ifps for destroyed ship , sorry boys !\n    }\n\n    function mintSpaceShip(address recipient, SpaceShips.Ship memory spaceShip) public returns(uint256) {\n        uint256 newId = _tokenIds.current();\n        _mint(recipient, newId);\n        string memory uri = _createTokenURI(spaceShip.parts);\n        _setTokenURI(newId, uri);\n        _createSpaceShipForToken(newId, spaceShip);\n        _tokenIds.increment();\n        return newId;\n    }\n}\n",
  "sourcePath": "G:\\NFT\\NFT-SpaceShip-Event\\contracts\\SpaceShipEventContract.sol",
  "compiler": {
    "name": "solc",
    "version": "0.8.0+commit.c7dfd78e.Emscripten.clang"
  },
  "schemaVersion": "3.4.3",
  "updatedAt": "2021-09-24T17:33:48.845Z",
  "networkType": "ethereum",
  "devdoc": {
    "kind": "dev",
    "methods": {
      "approve(address,uint256)": {
        "details": "See {IERC721-approve}."
      },
      "balanceOf(address)": {
        "details": "See {IERC721-balanceOf}."
      },
      "getApproved(uint256)": {
        "details": "See {IERC721-getApproved}."
      },
      "isApprovedForAll(address,address)": {
        "details": "See {IERC721-isApprovedForAll}."
      },
      "name()": {
        "details": "See {IERC721Metadata-name}."
      },
      "owner()": {
        "details": "Returns the address of the current owner."
      },
      "ownerOf(uint256)": {
        "details": "See {IERC721-ownerOf}."
      },
      "renounceOwnership()": {
        "details": "Leaves the contract without owner. It will not be possible to call `onlyOwner` functions anymore. Can only be called by the current owner. NOTE: Renouncing ownership will leave the contract without an owner, thereby removing any functionality that is only available to the owner."
      },
      "safeTransferFrom(address,address,uint256)": {
        "details": "See {IERC721-safeTransferFrom}."
      },
      "safeTransferFrom(address,address,uint256,bytes)": {
        "details": "See {IERC721-safeTransferFrom}."
      },
      "setApprovalForAll(address,bool)": {
        "details": "See {IERC721-setApprovalForAll}."
      },
      "supportsInterface(bytes4)": {
        "details": "See {IERC165-supportsInterface}."
      },
      "symbol()": {
        "details": "See {IERC721Metadata-symbol}."
      },
      "tokenURI(uint256)": {
        "details": "See {IERC721Metadata-tokenURI}."
      },
      "transferFrom(address,address,uint256)": {
        "details": "See {IERC721-transferFrom}."
      },
      "transferOwnership(address)": {
        "details": "Transfers ownership of the contract to a new account (`newOwner`). Can only be called by the current owner."
      }
    },
    "version": 1
  },
  "userdoc": {
    "kind": "user",
    "methods": {},
    "version": 1
  }
}